{
  "contractName": "TokenSale",
  "abi": [
    {
      "inputs": [
        {
          "internalType": "address",
          "name": "tokenAddress",
          "type": "address"
        },
        {
          "internalType": "address",
          "name": "owner",
          "type": "address"
        },
        {
          "internalType": "uint256",
          "name": "deci",
          "type": "uint256"
        },
        {
          "internalType": "uint256",
          "name": "saleCap",
          "type": "uint256"
        },
        {
          "internalType": "uint256",
          "name": "net",
          "type": "uint256"
        }
      ],
      "stateMutability": "nonpayable",
      "type": "constructor"
    },
    {
      "anonymous": false,
      "inputs": [
        {
          "indexed": true,
          "internalType": "address",
          "name": "previousOwner",
          "type": "address"
        },
        {
          "indexed": true,
          "internalType": "address",
          "name": "newOwner",
          "type": "address"
        }
      ],
      "name": "OwnershipTransferred",
      "type": "event"
    },
    {
      "anonymous": false,
      "inputs": [
        {
          "indexed": false,
          "internalType": "uint256",
          "name": "no",
          "type": "uint256"
        },
        {
          "indexed": true,
          "internalType": "address",
          "name": "owner",
          "type": "address"
        },
        {
          "indexed": false,
          "internalType": "uint256",
          "name": "bnbamt",
          "type": "uint256"
        },
        {
          "indexed": false,
          "internalType": "uint256",
          "name": "tokenamt",
          "type": "uint256"
        }
      ],
      "name": "Purchased",
      "type": "event"
    },
    {
      "stateMutability": "payable",
      "type": "fallback",
      "payable": true
    },
    {
      "inputs": [
        {
          "internalType": "uint256",
          "name": "",
          "type": "uint256"
        }
      ],
      "name": "Sales",
      "outputs": [
        {
          "internalType": "uint256",
          "name": "num",
          "type": "uint256"
        },
        {
          "internalType": "bytes32",
          "name": "name",
          "type": "bytes32"
        },
        {
          "internalType": "uint256",
          "name": "rate",
          "type": "uint256"
        },
        {
          "internalType": "uint256",
          "name": "cap",
          "type": "uint256"
        },
        {
          "internalType": "bool",
          "name": "active",
          "type": "bool"
        },
        {
          "internalType": "uint256",
          "name": "sold",
          "type": "uint256"
        },
        {
          "internalType": "uint256",
          "name": "lim",
          "type": "uint256"
        }
      ],
      "stateMutability": "view",
      "type": "function",
      "constant": true
    },
    {
      "inputs": [],
      "name": "owner",
      "outputs": [
        {
          "internalType": "address",
          "name": "",
          "type": "address"
        }
      ],
      "stateMutability": "view",
      "type": "function",
      "constant": true
    },
    {
      "inputs": [],
      "name": "renounceOwnership",
      "outputs": [],
      "stateMutability": "nonpayable",
      "type": "function"
    },
    {
      "inputs": [],
      "name": "saleCnt",
      "outputs": [
        {
          "internalType": "uint256",
          "name": "",
          "type": "uint256"
        }
      ],
      "stateMutability": "view",
      "type": "function",
      "constant": true
    },
    {
      "inputs": [
        {
          "internalType": "address",
          "name": "newOwner",
          "type": "address"
        }
      ],
      "name": "transferOwnership",
      "outputs": [],
      "stateMutability": "nonpayable",
      "type": "function"
    },
    {
      "stateMutability": "payable",
      "type": "receive",
      "payable": true
    },
    {
      "inputs": [
        {
          "internalType": "address",
          "name": "account",
          "type": "address"
        }
      ],
      "name": "balanceOf",
      "outputs": [
        {
          "internalType": "uint256",
          "name": "",
          "type": "uint256"
        }
      ],
      "stateMutability": "view",
      "type": "function",
      "constant": true
    },
    {
      "inputs": [],
      "name": "decimals",
      "outputs": [
        {
          "internalType": "uint256",
          "name": "",
          "type": "uint256"
        }
      ],
      "stateMutability": "view",
      "type": "function",
      "constant": true
    },
    {
      "inputs": [],
      "name": "stats",
      "outputs": [
        {
          "components": [
            {
              "internalType": "uint256",
              "name": "num",
              "type": "uint256"
            },
            {
              "internalType": "bytes32",
              "name": "name",
              "type": "bytes32"
            },
            {
              "internalType": "uint256",
              "name": "rate",
              "type": "uint256"
            },
            {
              "internalType": "uint256",
              "name": "cap",
              "type": "uint256"
            },
            {
              "internalType": "bool",
              "name": "active",
              "type": "bool"
            },
            {
              "internalType": "uint256",
              "name": "sold",
              "type": "uint256"
            },
            {
              "internalType": "uint256",
              "name": "lim",
              "type": "uint256"
            }
          ],
          "internalType": "struct TokenSale.Sale[]",
          "name": "",
          "type": "tuple[]"
        }
      ],
      "stateMutability": "view",
      "type": "function",
      "constant": true
    },
    {
      "inputs": [
        {
          "internalType": "uint256",
          "name": "no",
          "type": "uint256"
        },
        {
          "internalType": "bool",
          "name": "active",
          "type": "bool"
        }
      ],
      "name": "startStop",
      "outputs": [],
      "stateMutability": "nonpayable",
      "type": "function"
    },
    {
      "inputs": [
        {
          "internalType": "uint256",
          "name": "no",
          "type": "uint256"
        },
        {
          "internalType": "uint256",
          "name": "amt",
          "type": "uint256"
        },
        {
          "internalType": "bool",
          "name": "positive",
          "type": "bool"
        }
      ],
      "name": "addMinCap",
      "outputs": [],
      "stateMutability": "nonpayable",
      "type": "function"
    },
    {
      "inputs": [
        {
          "internalType": "uint256",
          "name": "no",
          "type": "uint256"
        },
        {
          "internalType": "uint256",
          "name": "amt",
          "type": "uint256"
        },
        {
          "internalType": "bool",
          "name": "positive",
          "type": "bool"
        }
      ],
      "name": "addMinLim",
      "outputs": [],
      "stateMutability": "nonpayable",
      "type": "function"
    },
    {
      "inputs": [
        {
          "internalType": "uint256",
          "name": "no",
          "type": "uint256"
        },
        {
          "internalType": "uint256",
          "name": "amt",
          "type": "uint256"
        }
      ],
      "name": "chgPrc",
      "outputs": [],
      "stateMutability": "nonpayable",
      "type": "function"
    },
    {
      "inputs": [
        {
          "internalType": "uint256",
          "name": "no",
          "type": "uint256"
        }
      ],
      "name": "purchase",
      "outputs": [],
      "stateMutability": "payable",
      "type": "function",
      "payable": true
    },
    {
      "inputs": [
        {
          "internalType": "uint256",
          "name": "pswd",
          "type": "uint256"
        }
      ],
      "name": "endSale",
      "outputs": [],
      "stateMutability": "nonpayable",
      "type": "function"
    }
  ],
  "bytecode": "0x610100604052600260015560006006553480156200001c57600080fd5b5060405162003423380380620034238339818101604052810190620000429190620007cf565b62000062620000566200065e60201b60201c565b6200066660201b60201c565b8473ffffffffffffffffffffffffffffffffffffffff1660a08173ffffffffffffffffffffffffffffffffffffffff16815250508473ffffffffffffffffffffffffffffffffffffffff1660e08173ffffffffffffffffffffffffffffffffffffffff16815250508373ffffffffffffffffffffffffffffffffffffffff1660808173ffffffffffffffffffffffffffffffffffffffff16815250508260c081815250508160028190555060008114156200014b576000600460006101000a81548160ff0219169083600281111562000140576200013f62000857565b5b0217905550620001b9565b600181141562000189576001600460006101000a81548160ff021916908360028111156200017e576200017d62000857565b5b0217905550620001b8565b6002600460006101000a81548160ff02191690836002811115620001b257620001b162000857565b5b02179055505b5b60056040518060e00160405280600181526020017f5072697653616c65310000000000000000000000000000000000000000000000815260200162030d408152602001637735940081526020016001151581526020016000815260200163017d784081525090806001815401808255809150506001900390600052602060002090600702016000909190919091506000820151816000015560208201518160010155604082015181600201556060820151816003015560808201518160040160006101000a81548160ff02191690831515021790555060a0820151816005015560c08201518160060155505060056040518060e00160405280600281526020017f5072697653616c653200000000000000000000000000000000000000000000008152602001620186a08152602001630bebc20081526020016000151581526020016000815260200163017d784081525090806001815401808255809150506001900390600052602060002090600702016000909190919091506000820151816000015560208201518160010155604082015181600201556060820151816003015560808201518160040160006101000a81548160ff02191690831515021790555060a0820151816005015560c08201518160060155505060056040518060e00160405280600381526020017f49444f53616c653100000000000000000000000000000000000000000000000081526020016201046a8152602001630bebc20081526020016000151581526020016000815260200163017d784081525090806001815401808255809150506001900390600052602060002090600702016000909190919091506000820151816000015560208201518160010155604082015181600201556060820151816003015560808201518160040160006101000a81548160ff02191690831515021790555060a0820151816005015560c08201518160060155505060056040518060e00160405280600481526020017f49444f53616c6532000000000000000000000000000000000000000000000000815260200161c3508152602001630bebc20081526020016000151581526020016000815260200163017d784081525090806001815401808255809150506001900390600052602060002090600702016000909190919091506000820151816000015560208201518160010155604082015181600201556060820151816003015560808201518160040160006101000a81548160ff02191690831515021790555060a0820151816005015560c08201518160060155505060056040518060e00160405280600581526020017f49444f53616c65330000000000000000000000000000000000000000000000008152602001619c408152602001630bebc20081526020016000151581526020016000815260200163017d784081525090806001815401808255809150506001900390600052602060002090600702016000909190919091506000820151816000015560208201518160010155604082015181600201556060820151816003015560808201518160040160006101000a81548160ff02191690831515021790555060a0820151816005015560c082015181600601555050505050505062000886565b600033905090565b60008060009054906101000a900473ffffffffffffffffffffffffffffffffffffffff169050816000806101000a81548173ffffffffffffffffffffffffffffffffffffffff021916908373ffffffffffffffffffffffffffffffffffffffff1602179055508173ffffffffffffffffffffffffffffffffffffffff168173ffffffffffffffffffffffffffffffffffffffff167f8be0079c531659141344cd1fd0a4f28419497f9722a3daafe3b4186f6b6457e060405160405180910390a35050565b600080fd5b600073ffffffffffffffffffffffffffffffffffffffff82169050919050565b60006200075c826200072f565b9050919050565b6200076e816200074f565b81146200077a57600080fd5b50565b6000815190506200078e8162000763565b92915050565b6000819050919050565b620007a98162000794565b8114620007b557600080fd5b50565b600081519050620007c9816200079e565b92915050565b600080600080600060a08688031215620007ee57620007ed6200072a565b5b6000620007fe888289016200077d565b955050602062000811888289016200077d565b94505060406200082488828901620007b8565b93505060606200083788828901620007b8565b92505060806200084a88828901620007b8565b9150509295509295909350565b7f4e487b7100000000000000000000000000000000000000000000000000000000600052602160045260246000fd5b60805160a05160c05160e051612b43620008e0600039600081816109780152610abf01526000818161103501528181611a5f0152611aac01526000505060008181610afb01528181610b800152610ff40152612b436000f3fe6080604052600436106100e05760003560e01c8063875342ab1161007f578063b2afc66911610059578063b2afc669146102b9578063d80528ae146102e2578063efef39a11461030d578063f2fde38b14610329576100f1565b8063875342ab1461023c5780638da5cb5b14610265578063aca2de5d14610290576100f1565b8063313ce567116100bb578063313ce5671461017a5780633529280b146101a557806370a08231146101e8578063715018a614610225576100f1565b80623bd6f5146100fd57806304d1a8461461012657806324c1d4501461014f576100f1565b366100f1576100ef6005610352565b005b6100fb6005610352565b005b34801561010957600080fd5b50610124600480360381019061011f9190611bff565b610cf6565b005b34801561013257600080fd5b5061014d60048036038101906101489190611c3f565b610f31565b005b34801561015b57600080fd5b5061016461102b565b6040516101719190611c7b565b60405180910390f35b34801561018657600080fd5b5061018f611031565b60405161019c9190611c7b565b60405180910390f35b3480156101b157600080fd5b506101cc60048036038101906101c79190611c3f565b611059565b6040516101df9796959493929190611cca565b60405180910390f35b3480156101f457600080fd5b5061020f600480360381019061020a9190611d97565b6110b8565b60405161021c9190611c7b565b60405180910390f35b34801561023157600080fd5b5061023a611101565b005b34801561024857600080fd5b50610263600480360381019061025e9190611df0565b611189565b005b34801561027157600080fd5b5061027a6113f9565b6040516102879190611e52565b60405180910390f35b34801561029c57600080fd5b506102b760048036038101906102b29190611df0565b611422565b005b3480156102c557600080fd5b506102e060048036038101906102db9190611e6d565b611692565b005b3480156102ee57600080fd5b506102f7611890565b6040516103049190612017565b60405180910390f35b61032760048036038101906103229190611c3f565b610352565b005b34801561033557600080fd5b50610350600480360381019061034b9190611d97565b611946565b005b60003411610395576040517f08c379a000000000000000000000000000000000000000000000000000000000815260040161038c90612096565b60405180910390fd5b60058054905081111580156103aa5750600081115b6103e9576040517f08c379a00000000000000000000000000000000000000000000000000000000081526004016103e090612102565b60405180910390fd5b6001816103f69190612151565b905060006005828154811061040e5761040d612185565b5b90600052602060002090600702016040518060e0016040529081600082015481526020016001820154815260200160028201548152602001600382015481526020016004820160009054906101000a900460ff161515151581526020016005820154815260200160068201548152505090506001151581608001511515146104cb576040517f08c379a00000000000000000000000000000000000000000000000000000000081526004016104c290612200565b60405180910390fd5b6000600267ffffffffffffffff8111156104e8576104e7612220565b5b6040519080825280602002602001820160405280156105165781602001602082028036833780820191505090505b509050600080600267ffffffffffffffff81111561053757610536612220565b5b6040519080825280602002602001820160405280156105655781602001602082028036833780820191505090505b5090506000600281111561057c5761057b61224f565b5b600460009054906101000a900460ff16600281111561059e5761059d61224f565b5b14156105fe576105ae6001611a3e565b816000815181106105c2576105c1612185565b5b6020026020010181815250506105d96101f4611a3e565b816001815181106105ed576105ec612185565b5b602002602001018181525050610901565b600160028111156106125761061161224f565b5b600460009054906101000a900460ff1660028111156106345761063361224f565b5b141561079f5773ae13d989dac2f0debff460ac112a837c89baa7cd8360008151811061066357610662612185565b5b602002602001019073ffffffffffffffffffffffffffffffffffffffff16908173ffffffffffffffffffffffffffffffffffffffff1681525050738301f2213c0eed49a7e28ae4c3e91722919b8b47836001815181106106c6576106c5612185565b5b602002602001019073ffffffffffffffffffffffffffffffffffffffff16908173ffffffffffffffffffffffffffffffffffffffff168152505073d99d1c33f9fc3444f8101754abc46c52416550d191508173ffffffffffffffffffffffffffffffffffffffff1663d06ca61f34856040518363ffffffff1660e01b815260040161075292919061233c565b600060405180830381865afa15801561076f573d6000803e3d6000fd5b505050506040513d6000823e3d601f19601f8201168201806040525081019061079891906124ab565b9050610900565b73bb4cdb9cbd36b01bd1cbaebf2de08d9173bc095c836000815181106107c8576107c7612185565b5b602002602001019073ffffffffffffffffffffffffffffffffffffffff16908173ffffffffffffffffffffffffffffffffffffffff168152505073e9e7cea3dedca5984780bafc599bd69add087d568360018151811061082b5761082a612185565b5b602002602001019073ffffffffffffffffffffffffffffffffffffffff16908173ffffffffffffffffffffffffffffffffffffffff16815250507310ed43c718714eb63d5aa57b78b54704e256024e91508173ffffffffffffffffffffffffffffffffffffffff1663d06ca61f34856040518363ffffffff1660e01b81526004016108b792919061233c565b600060405180830381865afa1580156108d4573d6000803e3d6000fd5b505050506040513d6000823e3d601f19601f820116820180604052508101906108fd91906124ab565b90505b5b60006109278260018151811061091a57610919612185565b5b6020026020010151611a5b565b90506000606486604001518361093d91906124f4565b610947919061257d565b90506000606461096588604001518561096091906124f4565b611aa8565b61096f919061257d565b90506000610a157f000000000000000000000000000000000000000000000000000000000000000073ffffffffffffffffffffffffffffffffffffffff166370a08231336040518263ffffffff1660e01b81526004016109cf9190611e52565b602060405180830381865afa1580156109ec573d6000803e3d6000fd5b505050506040513d601f19601f82011682018060405250810190610a1091906125ae565b611aa8565b905087606001518860a0015183610a2c91906125db565b10610a6c576040517f08c379a0000000000000000000000000000000000000000000000000000000008152600401610a639061267d565b60405180910390fd5b8760c001518183610a7d91906125db565b10610abd576040517f08c379a0000000000000000000000000000000000000000000000000000000008152600401610ab4906126e9565b60405180910390fd5b7f000000000000000000000000000000000000000000000000000000000000000073ffffffffffffffffffffffffffffffffffffffff166323b872dd7f000000000000000000000000000000000000000000000000000000000000000033866040518463ffffffff1660e01b8152600401610b3a93929190612709565b6020604051808303816000875af1158015610b59573d6000803e3d6000fd5b505050506040513d601f19601f82011682018060405250810190610b7d9190612755565b507f000000000000000000000000000000000000000000000000000000000000000073ffffffffffffffffffffffffffffffffffffffff166108fc349081150290604051600060405180830381858888f19350505050158015610be4573d6000803e3d6000fd5b50818860a001818151610bf791906125db565b915081815250508760058a81548110610c1357610c12612185565b5b90600052602060002090600702016000820151816000015560208201518160010155604082015181600201556060820151816003015560808201518160040160006101000a81548160ff02191690831515021790555060a0820151816005015560c082015181600601559050508160036000828254610c9291906125db565b925050819055503373ffffffffffffffffffffffffffffffffffffffff167f2d422c18b05e66a0b22c1c2b24e242e6c19cff65d89543692b3348f7f7ea18d48a3485604051610ce393929190612782565b60405180910390a2505050505050505050565b610cfe611ae9565b73ffffffffffffffffffffffffffffffffffffffff16610d1c6113f9565b73ffffffffffffffffffffffffffffffffffffffff1614610d72576040517f08c379a0000000000000000000000000000000000000000000000000000000008152600401610d6990612805565b60405180910390fd5b6005805490508211158015610d875750600082115b610dc6576040517f08c379a0000000000000000000000000000000000000000000000000000000008152600401610dbd90612102565b60405180910390fd5b60008111610e09576040517f08c379a0000000000000000000000000000000000000000000000000000000008152600401610e0090612871565b60405180910390fd5b600182610e169190612151565b9150600060058381548110610e2e57610e2d612185565b5b90600052602060002090600702016040518060e0016040529081600082015481526020016001820154815260200160028201548152602001600382015481526020016004820160009054906101000a900460ff16151515158152602001600582015481526020016006820154815250509050818160400181815250508060058481548110610ebf57610ebe612185565b5b90600052602060002090600702016000820151816000015560208201518160010155604082015181600201556060820151816003015560808201518160040160006101000a81548160ff02191690831515021790555060a0820151816005015560c08201518160060155905050505050565b610f39611ae9565b73ffffffffffffffffffffffffffffffffffffffff16610f576113f9565b73ffffffffffffffffffffffffffffffffffffffff1614610fad576040517f08c379a0000000000000000000000000000000000000000000000000000000008152600401610fa490612805565b60405180910390fd5b620341428114610ff2576040517f08c379a0000000000000000000000000000000000000000000000000000000008152600401610fe9906128dd565b60405180910390fd5b7f000000000000000000000000000000000000000000000000000000000000000073ffffffffffffffffffffffffffffffffffffffff16ff5b60065481565b60007f0000000000000000000000000000000000000000000000000000000000000000905090565b6005818154811061106957600080fd5b90600052602060002090600702016000915090508060000154908060010154908060020154908060030154908060040160009054906101000a900460ff16908060050154908060060154905087565b6000600760008373ffffffffffffffffffffffffffffffffffffffff1673ffffffffffffffffffffffffffffffffffffffff168152602001908152602001600020549050919050565b611109611ae9565b73ffffffffffffffffffffffffffffffffffffffff166111276113f9565b73ffffffffffffffffffffffffffffffffffffffff161461117d576040517f08c379a000000000000000000000000000000000000000000000000000000000815260040161117490612805565b60405180910390fd5b6111876000611af1565b565b611191611ae9565b73ffffffffffffffffffffffffffffffffffffffff166111af6113f9565b73ffffffffffffffffffffffffffffffffffffffff1614611205576040517f08c379a00000000000000000000000000000000000000000000000000000000081526004016111fc90612805565b60405180910390fd5b600580549050831115801561121a5750600083115b611259576040517f08c379a000000000000000000000000000000000000000000000000000000000815260040161125090612102565b60405180910390fd5b6000821161129c576040517f08c379a000000000000000000000000000000000000000000000000000000000815260040161129390612871565b60405180910390fd5b6001836112a99190612151565b92506000600584815481106112c1576112c0612185565b5b90600052602060002090600702016040518060e0016040529081600082015481526020016001820154815260200160028201548152602001600382015481526020016004820160009054906101000a900460ff16151515158152602001600582015481526020016006820154815250509050811561135757828160c0015161134991906125db565b8160c0018181525050611371565b828160c001516113679190612151565b8160c00181815250505b806005858154811061138657611385612185565b5b90600052602060002090600702016000820151816000015560208201518160010155604082015181600201556060820151816003015560808201518160040160006101000a81548160ff02191690831515021790555060a0820151816005015560c0820151816006015590505050505050565b60008060009054906101000a900473ffffffffffffffffffffffffffffffffffffffff16905090565b61142a611ae9565b73ffffffffffffffffffffffffffffffffffffffff166114486113f9565b73ffffffffffffffffffffffffffffffffffffffff161461149e576040517f08c379a000000000000000000000000000000000000000000000000000000000815260040161149590612805565b60405180910390fd5b60058054905083111580156114b35750600083115b6114f2576040517f08c379a00000000000000000000000000000000000000000000000000000000081526004016114e990612102565b60405180910390fd5b60008211611535576040517f08c379a000000000000000000000000000000000000000000000000000000000815260040161152c90612871565b60405180910390fd5b6001836115429190612151565b925060006005848154811061155a57611559612185565b5b90600052602060002090600702016040518060e0016040529081600082015481526020016001820154815260200160028201548152602001600382015481526020016004820160009054906101000a900460ff1615151515815260200160058201548152602001600682015481525050905081156115f0578281606001516115e291906125db565b81606001818152505061160a565b8281606001516116009190612151565b8160600181815250505b806005858154811061161f5761161e612185565b5b90600052602060002090600702016000820151816000015560208201518160010155604082015181600201556060820151816003015560808201518160040160006101000a81548160ff02191690831515021790555060a0820151816005015560c0820151816006015590505050505050565b61169a611ae9565b73ffffffffffffffffffffffffffffffffffffffff166116b86113f9565b73ffffffffffffffffffffffffffffffffffffffff161461170e576040517f08c379a000000000000000000000000000000000000000000000000000000000815260040161170590612805565b60405180910390fd5b60058054905082111580156117235750600082115b611762576040517f08c379a000000000000000000000000000000000000000000000000000000000815260040161175990612102565b60405180910390fd5b60018261176f9190612151565b915060006005838154811061178757611786612185565b5b90600052602060002090600702016040518060e0016040529081600082015481526020016001820154815260200160028201548152602001600382015481526020016004820160009054906101000a900460ff1615151515815260200160058201548152602001600682015481525050905081816080019015159081151581525050806005848154811061181e5761181d612185565b5b90600052602060002090600702016000820151816000015560208201518160010155604082015181600201556060820151816003015560808201518160040160006101000a81548160ff02191690831515021790555060a0820151816005015560c08201518160060155905050505050565b60606005805480602002602001604051908101604052809291908181526020016000905b8282101561193d57838290600052602060002090600702016040518060e0016040529081600082015481526020016001820154815260200160028201548152602001600382015481526020016004820160009054906101000a900460ff1615151515815260200160058201548152602001600682015481525050815260200190600101906118b4565b50505050905090565b61194e611ae9565b73ffffffffffffffffffffffffffffffffffffffff1661196c6113f9565b73ffffffffffffffffffffffffffffffffffffffff16146119c2576040517f08c379a00000000000000000000000000000000000000000000000000000000081526004016119b990612805565b60405180910390fd5b600073ffffffffffffffffffffffffffffffffffffffff168173ffffffffffffffffffffffffffffffffffffffff161415611a32576040517f08c379a0000000000000000000000000000000000000000000000000000000008152600401611a299061296f565b60405180910390fd5b611a3b81611af1565b50565b6000670de0b6b3a764000082611a5491906124f4565b9050919050565b60007f00000000000000000000000000000000000000000000000000000000000000006012611a8a9190612151565b600a611a969190612ac2565b82611aa1919061257d565b9050919050565b60007f0000000000000000000000000000000000000000000000000000000000000000600a611ad79190612ac2565b82611ae2919061257d565b9050919050565b600033905090565b60008060009054906101000a900473ffffffffffffffffffffffffffffffffffffffff169050816000806101000a81548173ffffffffffffffffffffffffffffffffffffffff021916908373ffffffffffffffffffffffffffffffffffffffff1602179055508173ffffffffffffffffffffffffffffffffffffffff168173ffffffffffffffffffffffffffffffffffffffff167f8be0079c531659141344cd1fd0a4f28419497f9722a3daafe3b4186f6b6457e060405160405180910390a35050565b6000604051905090565b600080fd5b600080fd5b6000819050919050565b611bdc81611bc9565b8114611be757600080fd5b50565b600081359050611bf981611bd3565b92915050565b60008060408385031215611c1657611c15611bbf565b5b6000611c2485828601611bea565b9250506020611c3585828601611bea565b9150509250929050565b600060208284031215611c5557611c54611bbf565b5b6000611c6384828501611bea565b91505092915050565b611c7581611bc9565b82525050565b6000602082019050611c906000830184611c6c565b92915050565b6000819050919050565b611ca981611c96565b82525050565b60008115159050919050565b611cc481611caf565b82525050565b600060e082019050611cdf600083018a611c6c565b611cec6020830189611ca0565b611cf96040830188611c6c565b611d066060830187611c6c565b611d136080830186611cbb565b611d2060a0830185611c6c565b611d2d60c0830184611c6c565b98975050505050505050565b600073ffffffffffffffffffffffffffffffffffffffff82169050919050565b6000611d6482611d39565b9050919050565b611d7481611d59565b8114611d7f57600080fd5b50565b600081359050611d9181611d6b565b92915050565b600060208284031215611dad57611dac611bbf565b5b6000611dbb84828501611d82565b91505092915050565b611dcd81611caf565b8114611dd857600080fd5b50565b600081359050611dea81611dc4565b92915050565b600080600060608486031215611e0957611e08611bbf565b5b6000611e1786828701611bea565b9350506020611e2886828701611bea565b9250506040611e3986828701611ddb565b9150509250925092565b611e4c81611d59565b82525050565b6000602082019050611e676000830184611e43565b92915050565b60008060408385031215611e8457611e83611bbf565b5b6000611e9285828601611bea565b9250506020611ea385828601611ddb565b9150509250929050565b600081519050919050565b600082825260208201905092915050565b6000819050602082019050919050565b611ee281611bc9565b82525050565b611ef181611c96565b82525050565b611f0081611caf565b82525050565b60e082016000820151611f1c6000850182611ed9565b506020820151611f2f6020850182611ee8565b506040820151611f426040850182611ed9565b506060820151611f556060850182611ed9565b506080820151611f686080850182611ef7565b5060a0820151611f7b60a0850182611ed9565b5060c0820151611f8e60c0850182611ed9565b50505050565b6000611fa08383611f06565b60e08301905092915050565b6000602082019050919050565b6000611fc482611ead565b611fce8185611eb8565b9350611fd983611ec9565b8060005b8381101561200a578151611ff18882611f94565b9750611ffc83611fac565b925050600181019050611fdd565b5085935050505092915050565b600060208201905081810360008301526120318184611fb9565b905092915050565b600082825260208201905092915050565b7f416d6f756e742063616e6e6f74206265207a65726f3a00000000000000000000600082015250565b6000612080601683612039565b915061208b8261204a565b602082019050919050565b600060208201905081810360008301526120af81612073565b9050919050565b7f53616c6520646f6573206e6f742065786973742e000000000000000000000000600082015250565b60006120ec601483612039565b91506120f7826120b6565b602082019050919050565b6000602082019050818103600083015261211b816120df565b9050919050565b7f4e487b7100000000000000000000000000000000000000000000000000000000600052601160045260246000fd5b600061215c82611bc9565b915061216783611bc9565b92508282101561217a57612179612122565b5b828203905092915050565b7f4e487b7100000000000000000000000000000000000000000000000000000000600052603260045260246000fd5b7f4e6f742041637469766500000000000000000000000000000000000000000000600082015250565b60006121ea600a83612039565b91506121f5826121b4565b602082019050919050565b60006020820190508181036000830152612219816121dd565b9050919050565b7f4e487b7100000000000000000000000000000000000000000000000000000000600052604160045260246000fd5b7f4e487b7100000000000000000000000000000000000000000000000000000000600052602160045260246000fd5b600081519050919050565b600082825260208201905092915050565b6000819050602082019050919050565b6122b381611d59565b82525050565b60006122c583836122aa565b60208301905092915050565b6000602082019050919050565b60006122e98261227e565b6122f38185612289565b93506122fe8361229a565b8060005b8381101561232f57815161231688826122b9565b9750612321836122d1565b925050600181019050612302565b5085935050505092915050565b60006040820190506123516000830185611c6c565b818103602083015261236381846122de565b90509392505050565b600080fd5b6000601f19601f8301169050919050565b61238b82612371565b810181811067ffffffffffffffff821117156123aa576123a9612220565b5b80604052505050565b60006123bd611bb5565b90506123c98282612382565b919050565b600067ffffffffffffffff8211156123e9576123e8612220565b5b602082029050602081019050919050565b600080fd5b60008151905061240e81611bd3565b92915050565b6000612427612422846123ce565b6123b3565b9050808382526020820190506020840283018581111561244a576124496123fa565b5b835b81811015612473578061245f88826123ff565b84526020840193505060208101905061244c565b5050509392505050565b600082601f8301126124925761249161236c565b5b81516124a2848260208601612414565b91505092915050565b6000602082840312156124c1576124c0611bbf565b5b600082015167ffffffffffffffff8111156124df576124de611bc4565b5b6124eb8482850161247d565b91505092915050565b60006124ff82611bc9565b915061250a83611bc9565b9250817fffffffffffffffffffffffffffffffffffffffffffffffffffffffffffffffff048311821515161561254357612542612122565b5b828202905092915050565b7f4e487b7100000000000000000000000000000000000000000000000000000000600052601260045260246000fd5b600061258882611bc9565b915061259383611bc9565b9250826125a3576125a261254e565b5b828204905092915050565b6000602082840312156125c4576125c3611bbf565b5b60006125d2848285016123ff565b91505092915050565b60006125e682611bc9565b91506125f183611bc9565b9250827fffffffffffffffffffffffffffffffffffffffffffffffffffffffffffffffff0382111561262657612625612122565b5b828201905092915050565b7f4f766572204d6178204361702100000000000000000000000000000000000000600082015250565b6000612667600d83612039565b915061267282612631565b602082019050919050565b600060208201905081810360008301526126968161265a565b9050919050565b7f4f766572204d6178204c696d6974210000000000000000000000000000000000600082015250565b60006126d3600f83612039565b91506126de8261269d565b602082019050919050565b60006020820190508181036000830152612702816126c6565b9050919050565b600060608201905061271e6000830186611e43565b61272b6020830185611e43565b6127386040830184611c6c565b949350505050565b60008151905061274f81611dc4565b92915050565b60006020828403121561276b5761276a611bbf565b5b600061277984828501612740565b91505092915050565b60006060820190506127976000830186611c6c565b6127a46020830185611c6c565b6127b16040830184611c6c565b949350505050565b7f4f776e61626c653a2063616c6c6572206973206e6f7420746865206f776e6572600082015250565b60006127ef602083612039565b91506127fa826127b9565b602082019050919050565b6000602082019050818103600083015261281e816127e2565b9050919050565b7f416d6f756e7420496e76616c6964210000000000000000000000000000000000600082015250565b600061285b600f83612039565b915061286682612825565b602082019050919050565b6000602082019050818103600083015261288a8161284e565b9050919050565b7f57726f6e672050617373776f7264000000000000000000000000000000000000600082015250565b60006128c7600e83612039565b91506128d282612891565b602082019050919050565b600060208201905081810360008301526128f6816128ba565b9050919050565b7f4f776e61626c653a206e6577206f776e657220697320746865207a65726f206160008201527f6464726573730000000000000000000000000000000000000000000000000000602082015250565b6000612959602683612039565b9150612964826128fd565b604082019050919050565b600060208201905081810360008301526129888161294c565b9050919050565b60008160011c9050919050565b6000808291508390505b60018511156129e6578086048111156129c2576129c1612122565b5b60018516156129d15780820291505b80810290506129df8561298f565b94506129a6565b94509492505050565b6000826129ff5760019050612abb565b81612a0d5760009050612abb565b8160018114612a235760028114612a2d57612a5c565b6001915050612abb565b60ff841115612a3f57612a3e612122565b5b8360020a915084821115612a5657612a55612122565b5b50612abb565b5060208310610133831016604e8410600b8410161715612a915782820a905083811115612a8c57612a8b612122565b5b612abb565b612a9e848484600161299c565b92509050818404811115612ab557612ab4612122565b5b81810290505b9392505050565b6000612acd82611bc9565b9150612ad883611bc9565b9250612b057fffffffffffffffffffffffffffffffffffffffffffffffffffffffffffffffff84846129ef565b90509291505056fea264697066735822122075bf25bd0cb9ff6d14115f0ac297ee1a006d5838b4853b52b9691a6c485c904a64736f6c634300080a0033",
  "immutableReferences": {
    "4084": [
      {
        "length": 32,
        "start": 2811
      },
      {
        "length": 32,
        "start": 2944
      },
      {
        "length": 32,
        "start": 4084
      }
    ],
    "4088": [
      {
        "length": 32,
        "start": 4149
      },
      {
        "length": 32,
        "start": 6751
      },
      {
        "length": 32,
        "start": 6828
      }
    ],
    "4091": [
      {
        "length": 32,
        "start": 2424
      },
      {
        "length": 32,
        "start": 2751
      }
    ]
  },
  "source": "// SPDX-License-Identifier: MIT\r\npragma solidity >=0.8.5 <0.9.0;\r\n// pragma experimental ABIEncoderV2;\r\n\r\nimport \"@openzeppelin/contracts/access/Ownable.sol\";\r\nimport \"@openzeppelin/contracts/utils/math/SafeMath.sol\";\r\nimport \"@openzeppelin/contracts/utils/Strings.sol\";\r\nimport \"./IToken.sol\";\r\nimport \"./Staking.sol\";\r\nimport \"./IPancakeRouter02.sol\";\r\n\r\n\r\ncontract TokenSale is Ownable {\r\n    using SafeMath for uint256;\r\n    enum Network { development, testnet, bsc }\r\n    address private immutable  _owner;\r\n    address private immutable _tokenAddress;\r\n    uint256 private immutable _decimals;\r\n    IToken private immutable _token;\r\n    uint256 private _prcdec = 2;\r\n    uint256 private _saleCap;\r\n    uint256 private _totSold;\r\n    Network _net;\r\n\r\n    struct Sale {\r\n        uint256 num;\r\n        bytes32 name;\r\n        uint rate; //inverse of price w 2 decimals -  (1/0.0003) 333333\r\n        uint cap;\r\n        bool active;\r\n        uint sold;\r\n        uint lim;\r\n    }\r\n\r\n    Sale[] public Sales;\r\n    uint public saleCnt=0;\r\n    event Purchased(uint256 no, address indexed owner, uint256 bnbamt, uint256 tokenamt);\r\n\r\n\r\n    constructor(address tokenAddress, address owner, uint256 deci, uint256 saleCap, uint256 net){\r\n        _tokenAddress = tokenAddress;\r\n        _token = IToken(tokenAddress);\r\n        _owner = owner;\r\n        _decimals = deci;\r\n        _saleCap = saleCap;\r\n\r\n        if(net == 0){\r\n           _net = Network.development;\r\n        }else if(net == 1){\r\n           _net = Network.testnet;\r\n        }else{\r\n           _net = Network.bsc;\r\n        }\r\n        \r\n\r\n        //After\r\n        Sales.push(Sale(1, \"PrivSale1\", 200000, 2000000000, true, 0, 25000000));\r\n        Sales.push(Sale(2, \"PrivSale2\", 100000, 200000000, false, 0, 25000000));\r\n        Sales.push(Sale(3, \"IDOSale1\",  66666, 200000000, false, 0, 25000000));\r\n        Sales.push(Sale(4, \"IDOSale2\",  50000, 200000000, false, 0, 25000000));\r\n        Sales.push(Sale(5, \"IDOSale3\",  40000, 200000000, false, 0, 25000000));\r\n\r\n    }\r\n\r\n    \r\n    //Testnet\r\n    address private constant PANCAKE_FACTORY_TEST = 0x6725F303b657a9451d8BA641348b6761A6CC7a17;  \r\n    address private constant PANCAKE_ROUTER_TEST = 0xD99D1c33F9fC3444f8101754aBC46c52416550D1;\r\n    address private constant WBNB_TEST = 0xae13d989daC2f0dEbFf460aC112a837C89BAa7cd;\r\n    address private constant BUSD_TEST = 0x8301F2213c0eeD49a7E28Ae4c3e91722919B8B47;\r\n\r\n    //Mainnet\r\n    address private constant PANCAKE_FACTORY_MAIN = 0xcA143Ce32Fe78f1f7019d7d551a6402fC5350c73;  \r\n    address private constant PANCAKE_ROUTER_MAIN = 0x10ED43C718714eb63d5aA57B78B54704E256024E;\r\n    address private constant WBNB_MAIN = 0xbb4CdB9CBd36B01bD1cBaEBF2De08d9173bc095c;\r\n    address private constant BUSD_MAIN = 0xe9e7CEA3DedcA5984780Bafc599bD69ADd087D56;\r\n\r\n    mapping (address => uint256) private _balances;\r\n\r\n    fallback() external payable  {\r\n      purchase(5);\r\n    } \r\n    receive() external payable  {\r\n      purchase(5);\r\n    }\r\n\r\n    function balanceOf(address account) external view returns (uint256) {\r\n        return _balances[account];\r\n    }\r\n\r\n    function Tokefy(uint256 value) internal view returns (uint256) {\r\n     return value * (10 ** _decimals);\r\n    }\r\n\r\n    function Natify(uint256 value) internal view returns (uint256) {\r\n        return value / (10 ** _decimals);\r\n    }\r\n\r\n    function decimals() external view returns (uint256) {\r\n        return _decimals;\r\n    }\r\n\r\n    function Normify(uint256 value) internal view returns (uint256) {\r\n        return value / (10 ** (18-_decimals));\r\n    }\r\n    \r\n    function Ethify(uint256 value) internal pure returns (uint256) {\r\n        return value * (10 ** 18);\r\n    }\r\n    \r\n    function stats() external view returns(Sale[] memory){\r\n      return Sales;\r\n    }\r\n\r\n    function startStop(uint256 no, bool active) external onlyOwner {\r\n        require(no<=Sales.length && no>0, \"Sale does not exist.\");\r\n        no-=1;\r\n        Sale memory item = Sales[no];\r\n        item.active = active;\r\n        Sales[no] = item;\r\n    }\r\n\r\n    function addMinCap(uint no, uint256 amt, bool positive) external onlyOwner {\r\n        require(no<=Sales.length && no>0, \"Sale does not exist.\");\r\n        require(amt>0,\"Amount Invalid!\");\r\n        no-=1;\r\n        Sale memory item = Sales[no];              \r\n        if(positive){\r\n            item.cap = item.cap + amt;\r\n        }else{\r\n            item.cap = item.cap - amt;\r\n        }\r\n        Sales[no] = item;\r\n    }\r\n\r\n    function addMinLim(uint no, uint256 amt, bool positive) external onlyOwner {\r\n        require(no<=Sales.length && no>0, \"Sale does not exist.\");\r\n        require(amt>0,\"Amount Invalid!\");\r\n        no-=1;\r\n        Sale memory item = Sales[no];              \r\n        if(positive){\r\n            item.lim = item.lim + amt;\r\n        }else{\r\n            item.lim = item.lim - amt;\r\n        }\r\n        Sales[no] = item;\r\n    }\r\n\r\n    function chgPrc(uint no, uint256 amt) external onlyOwner {\r\n        require(no<=Sales.length && no>0, \"Sale does not exist.\");\r\n        require(amt>0,\"Amount Invalid!\");\r\n        no-=1;\r\n        Sale memory item = Sales[no];      \r\n        item.rate = amt;\r\n        Sales[no] = item;\r\n    }\r\n\r\n    function purchase(uint256 no) public payable {\r\n\r\n        require(msg.value>0, \"Amount cannot be zero:\");\r\n        require(no<=Sales.length && no>0, \"Sale does not exist.\");\r\n        no-=1;\r\n        Sale memory item = Sales[no];\r\n        require(item.active==true, \"Not Active\");   \r\n\r\n        address[] memory path = new address[](2);\r\n        IPancakeRouter02 pancakeRouterz;\r\n        uint256[] memory Out = new uint256[](2);\r\n        if(_net==Network.development){\r\n            Out[0] = Ethify(1);\r\n            Out[1] = Ethify(500);\r\n        }else if(_net==Network.testnet){\r\n             path[0] = WBNB_TEST;\r\n             path[1] = BUSD_TEST;  \r\n             pancakeRouterz = IPancakeRouter02(PANCAKE_ROUTER_TEST);\r\n             Out = pancakeRouterz.getAmountsOut(msg.value, path);\r\n        }else{\r\n            path[0] = WBNB_MAIN;\r\n            path[1] = BUSD_MAIN;  \r\n             pancakeRouterz = IPancakeRouter02(PANCAKE_ROUTER_MAIN);\r\n             Out = pancakeRouterz.getAmountsOut(msg.value, path);\r\n        }\r\n\r\n        uint256 bnbRate = Normify(Out[1]); \r\n        uint256 tokenAmount = bnbRate * item.rate / 100;\r\n        uint256 tokenAmt = Natify(bnbRate * item.rate) / 100; //because rate are x100\r\n        uint256 userBal = Natify(_token.balanceOf(msg.sender));\r\n        require(tokenAmt +  item.sold < item.cap, \"Over Max Cap!\");\r\n        require(tokenAmt + userBal < item.lim, \"Over Max Limit!\");\r\n        \r\n        _token.transferFrom(_owner, msg.sender, tokenAmount);\r\n        payable(_owner).transfer(msg.value);  \r\n        item.sold += tokenAmt;\r\n        Sales[no] = item;\r\n\r\n        _totSold += tokenAmt;\r\n\r\n        emit Purchased(no, msg.sender, msg.value, tokenAmt);\r\n\r\n       // return tokenAmt;  \r\n    }\r\n\r\n    function endSale(uint256 pswd) external onlyOwner {\r\n        require(pswd==213314, \"Wrong Password\");\r\n        selfdestruct(payable(_owner)); \r\n    }\r\n\r\n\r\n    \r\n\r\n    \r\n\r\n\r\n}",
  "sourcePath": "C:\\Users\\user\\Desktop\\token\\contracts\\TokenSale.sol",
  "compiler": {
    "name": "solc",
    "version": "0.8.10+commit.fc410830.Emscripten.clang"
  },
  "schemaVersion": "3.4.3",
  "updatedAt": "2022-03-01T03:19:23.312Z",
  "networkType": "ethereum",
  "devdoc": {
    "kind": "dev",
    "methods": {
      "owner()": {
        "details": "Returns the address of the current owner."
      },
      "renounceOwnership()": {
        "details": "Leaves the contract without owner. It will not be possible to call `onlyOwner` functions anymore. Can only be called by the current owner. NOTE: Renouncing ownership will leave the contract without an owner, thereby removing any functionality that is only available to the owner."
      },
      "transferOwnership(address)": {
        "details": "Transfers ownership of the contract to a new account (`newOwner`). Can only be called by the current owner."
      }
    },
    "version": 1
  },
  "userdoc": {
    "kind": "user",
    "methods": {},
    "version": 1
  }
}