{
  "contractName": "Token",
  "abi": [
    {
      "inputs": [
        {
          "internalType": "string",
          "name": "token_name",
          "type": "string"
        },
        {
          "internalType": "string",
          "name": "short_symbol",
          "type": "string"
        },
        {
          "internalType": "uint256",
          "name": "token_decimals",
          "type": "uint256"
        },
        {
          "internalType": "uint256",
          "name": "token_totalSupply",
          "type": "uint256"
        },
        {
          "internalType": "uint256",
          "name": "minStakeDur",
          "type": "uint256"
        }
      ],
      "stateMutability": "payable",
      "type": "constructor",
      "payable": true
    },
    {
      "anonymous": false,
      "inputs": [
        {
          "indexed": true,
          "internalType": "address",
          "name": "owner",
          "type": "address"
        },
        {
          "indexed": true,
          "internalType": "address",
          "name": "spender",
          "type": "address"
        },
        {
          "indexed": false,
          "internalType": "uint256",
          "name": "value",
          "type": "uint256"
        }
      ],
      "name": "Approval",
      "type": "event"
    },
    {
      "anonymous": false,
      "inputs": [
        {
          "indexed": true,
          "internalType": "address",
          "name": "user",
          "type": "address"
        },
        {
          "indexed": false,
          "internalType": "uint256",
          "name": "amount",
          "type": "uint256"
        },
        {
          "indexed": false,
          "internalType": "uint256",
          "name": "total",
          "type": "uint256"
        },
        {
          "indexed": false,
          "internalType": "uint256",
          "name": "unamt",
          "type": "uint256"
        },
        {
          "indexed": false,
          "internalType": "uint256",
          "name": "timestamp",
          "type": "uint256"
        }
      ],
      "name": "Claimed",
      "type": "event"
    },
    {
      "anonymous": false,
      "inputs": [
        {
          "indexed": true,
          "internalType": "address",
          "name": "previousOwner",
          "type": "address"
        },
        {
          "indexed": true,
          "internalType": "address",
          "name": "newOwner",
          "type": "address"
        }
      ],
      "name": "OwnershipTransferred",
      "type": "event"
    },
    {
      "anonymous": false,
      "inputs": [
        {
          "indexed": true,
          "internalType": "address",
          "name": "owner",
          "type": "address"
        },
        {
          "indexed": false,
          "internalType": "uint256",
          "name": "bnbamt",
          "type": "uint256"
        },
        {
          "indexed": false,
          "internalType": "uint256",
          "name": "tokenamt",
          "type": "uint256"
        }
      ],
      "name": "Purchased",
      "type": "event"
    },
    {
      "anonymous": false,
      "inputs": [
        {
          "indexed": true,
          "internalType": "address",
          "name": "owner",
          "type": "address"
        },
        {
          "indexed": false,
          "internalType": "uint256",
          "name": "value",
          "type": "uint256"
        },
        {
          "indexed": false,
          "internalType": "uint256",
          "name": "fee",
          "type": "uint256"
        }
      ],
      "name": "RefClaimed",
      "type": "event"
    },
    {
      "anonymous": false,
      "inputs": [
        {
          "indexed": true,
          "internalType": "address",
          "name": "user",
          "type": "address"
        },
        {
          "indexed": false,
          "internalType": "uint256",
          "name": "amount",
          "type": "uint256"
        },
        {
          "indexed": false,
          "internalType": "uint256",
          "name": "total",
          "type": "uint256"
        },
        {
          "indexed": false,
          "internalType": "uint256",
          "name": "unamt",
          "type": "uint256"
        },
        {
          "indexed": false,
          "internalType": "uint256",
          "name": "timestamp",
          "type": "uint256"
        }
      ],
      "name": "Staked",
      "type": "event"
    },
    {
      "anonymous": false,
      "inputs": [
        {
          "indexed": true,
          "internalType": "address",
          "name": "from",
          "type": "address"
        },
        {
          "indexed": true,
          "internalType": "address",
          "name": "to",
          "type": "address"
        },
        {
          "indexed": false,
          "internalType": "uint256",
          "name": "value",
          "type": "uint256"
        }
      ],
      "name": "Transfer",
      "type": "event"
    },
    {
      "anonymous": false,
      "inputs": [
        {
          "indexed": true,
          "internalType": "address",
          "name": "user",
          "type": "address"
        },
        {
          "indexed": false,
          "internalType": "uint256",
          "name": "amount",
          "type": "uint256"
        },
        {
          "indexed": false,
          "internalType": "uint256",
          "name": "total",
          "type": "uint256"
        },
        {
          "indexed": false,
          "internalType": "uint256",
          "name": "unamt",
          "type": "uint256"
        },
        {
          "indexed": false,
          "internalType": "uint256",
          "name": "timestamp",
          "type": "uint256"
        }
      ],
      "name": "Unstaked",
      "type": "event"
    },
    {
      "stateMutability": "payable",
      "type": "fallback",
      "payable": true
    },
    {
      "inputs": [],
      "name": "clmDisabled",
      "outputs": [
        {
          "internalType": "bool",
          "name": "",
          "type": "bool"
        }
      ],
      "stateMutability": "view",
      "type": "function",
      "constant": true
    },
    {
      "inputs": [],
      "name": "owner",
      "outputs": [
        {
          "internalType": "address",
          "name": "",
          "type": "address"
        }
      ],
      "stateMutability": "view",
      "type": "function",
      "constant": true
    },
    {
      "inputs": [],
      "name": "renounceOwnership",
      "outputs": [],
      "stateMutability": "nonpayable",
      "type": "function"
    },
    {
      "inputs": [
        {
          "internalType": "uint256",
          "name": "",
          "type": "uint256"
        }
      ],
      "name": "stkCol",
      "outputs": [
        {
          "internalType": "uint256",
          "name": "bno",
          "type": "uint256"
        },
        {
          "internalType": "address",
          "name": "addr",
          "type": "address"
        },
        {
          "internalType": "uint256",
          "name": "amt",
          "type": "uint256"
        },
        {
          "internalType": "uint256",
          "name": "ts",
          "type": "uint256"
        }
      ],
      "stateMutability": "view",
      "type": "function",
      "constant": true
    },
    {
      "inputs": [],
      "name": "stkDisabled",
      "outputs": [
        {
          "internalType": "bool",
          "name": "",
          "type": "bool"
        }
      ],
      "stateMutability": "view",
      "type": "function",
      "constant": true
    },
    {
      "inputs": [],
      "name": "totClaimed",
      "outputs": [
        {
          "internalType": "uint256",
          "name": "",
          "type": "uint256"
        }
      ],
      "stateMutability": "view",
      "type": "function",
      "constant": true
    },
    {
      "inputs": [],
      "name": "totFees",
      "outputs": [
        {
          "internalType": "uint256",
          "name": "",
          "type": "uint256"
        }
      ],
      "stateMutability": "view",
      "type": "function",
      "constant": true
    },
    {
      "inputs": [],
      "name": "totRefpaid",
      "outputs": [
        {
          "internalType": "uint256",
          "name": "",
          "type": "uint256"
        }
      ],
      "stateMutability": "view",
      "type": "function",
      "constant": true
    },
    {
      "inputs": [],
      "name": "totStaked",
      "outputs": [
        {
          "internalType": "uint256",
          "name": "",
          "type": "uint256"
        }
      ],
      "stateMutability": "view",
      "type": "function",
      "constant": true
    },
    {
      "inputs": [],
      "name": "totUnstaked",
      "outputs": [
        {
          "internalType": "uint256",
          "name": "",
          "type": "uint256"
        }
      ],
      "stateMutability": "view",
      "type": "function",
      "constant": true
    },
    {
      "inputs": [
        {
          "internalType": "address",
          "name": "newOwner",
          "type": "address"
        }
      ],
      "name": "transferOwnership",
      "outputs": [],
      "stateMutability": "nonpayable",
      "type": "function"
    },
    {
      "inputs": [
        {
          "internalType": "uint256",
          "name": "",
          "type": "uint256"
        }
      ],
      "name": "utkCol",
      "outputs": [
        {
          "internalType": "uint256",
          "name": "bno",
          "type": "uint256"
        },
        {
          "internalType": "address",
          "name": "addr",
          "type": "address"
        },
        {
          "internalType": "uint256",
          "name": "amt",
          "type": "uint256"
        },
        {
          "internalType": "uint256",
          "name": "ts",
          "type": "uint256"
        }
      ],
      "stateMutability": "view",
      "type": "function",
      "constant": true
    },
    {
      "stateMutability": "payable",
      "type": "receive",
      "payable": true
    },
    {
      "inputs": [
        {
          "internalType": "uint256",
          "name": "no",
          "type": "uint256"
        }
      ],
      "name": "setDefaultSale",
      "outputs": [],
      "stateMutability": "nonpayable",
      "type": "function"
    },
    {
      "inputs": [
        {
          "internalType": "address",
          "name": "tokenSaleAddress",
          "type": "address"
        }
      ],
      "name": "initSale",
      "outputs": [],
      "stateMutability": "nonpayable",
      "type": "function"
    },
    {
      "inputs": [
        {
          "internalType": "uint256",
          "name": "amt",
          "type": "uint256"
        }
      ],
      "name": "getTokenAmt",
      "outputs": [
        {
          "internalType": "uint256",
          "name": "",
          "type": "uint256"
        }
      ],
      "stateMutability": "view",
      "type": "function",
      "constant": true
    },
    {
      "inputs": [],
      "name": "decimals",
      "outputs": [
        {
          "internalType": "uint256",
          "name": "",
          "type": "uint256"
        }
      ],
      "stateMutability": "view",
      "type": "function",
      "constant": true
    },
    {
      "inputs": [],
      "name": "symbol",
      "outputs": [
        {
          "internalType": "string",
          "name": "",
          "type": "string"
        }
      ],
      "stateMutability": "view",
      "type": "function",
      "constant": true
    },
    {
      "inputs": [],
      "name": "name",
      "outputs": [
        {
          "internalType": "string",
          "name": "",
          "type": "string"
        }
      ],
      "stateMutability": "view",
      "type": "function",
      "constant": true
    },
    {
      "inputs": [],
      "name": "totalSupply",
      "outputs": [
        {
          "internalType": "uint256",
          "name": "",
          "type": "uint256"
        }
      ],
      "stateMutability": "view",
      "type": "function",
      "constant": true
    },
    {
      "inputs": [
        {
          "internalType": "address",
          "name": "account",
          "type": "address"
        }
      ],
      "name": "balanceOf",
      "outputs": [
        {
          "internalType": "uint256",
          "name": "",
          "type": "uint256"
        }
      ],
      "stateMutability": "view",
      "type": "function",
      "constant": true
    },
    {
      "inputs": [],
      "name": "IsClmDisabled",
      "outputs": [
        {
          "internalType": "bool",
          "name": "",
          "type": "bool"
        }
      ],
      "stateMutability": "view",
      "type": "function",
      "constant": true
    },
    {
      "inputs": [
        {
          "internalType": "uint256",
          "name": "rate",
          "type": "uint256"
        }
      ],
      "name": "setTokenRate",
      "outputs": [],
      "stateMutability": "nonpayable",
      "type": "function"
    },
    {
      "inputs": [
        {
          "internalType": "uint256",
          "name": "amount",
          "type": "uint256"
        }
      ],
      "name": "burn",
      "outputs": [
        {
          "internalType": "bool",
          "name": "",
          "type": "bool"
        }
      ],
      "stateMutability": "nonpayable",
      "type": "function"
    },
    {
      "inputs": [
        {
          "internalType": "address",
          "name": "account",
          "type": "address"
        },
        {
          "internalType": "uint256",
          "name": "amount",
          "type": "uint256"
        }
      ],
      "name": "mint",
      "outputs": [
        {
          "internalType": "bool",
          "name": "",
          "type": "bool"
        }
      ],
      "stateMutability": "nonpayable",
      "type": "function"
    },
    {
      "inputs": [
        {
          "internalType": "address",
          "name": "recipient",
          "type": "address"
        },
        {
          "internalType": "uint256",
          "name": "amount",
          "type": "uint256"
        }
      ],
      "name": "transfer",
      "outputs": [
        {
          "internalType": "bool",
          "name": "",
          "type": "bool"
        }
      ],
      "stateMutability": "nonpayable",
      "type": "function"
    },
    {
      "inputs": [],
      "name": "getOwner",
      "outputs": [
        {
          "internalType": "address",
          "name": "",
          "type": "address"
        }
      ],
      "stateMutability": "view",
      "type": "function",
      "constant": true
    },
    {
      "inputs": [
        {
          "internalType": "address",
          "name": "owner",
          "type": "address"
        },
        {
          "internalType": "address",
          "name": "spender",
          "type": "address"
        }
      ],
      "name": "allowance",
      "outputs": [
        {
          "internalType": "uint256",
          "name": "",
          "type": "uint256"
        }
      ],
      "stateMutability": "view",
      "type": "function",
      "constant": true
    },
    {
      "inputs": [
        {
          "internalType": "address",
          "name": "spender",
          "type": "address"
        },
        {
          "internalType": "uint256",
          "name": "amount",
          "type": "uint256"
        }
      ],
      "name": "approve",
      "outputs": [
        {
          "internalType": "bool",
          "name": "",
          "type": "bool"
        }
      ],
      "stateMutability": "nonpayable",
      "type": "function"
    },
    {
      "inputs": [
        {
          "internalType": "address",
          "name": "spender",
          "type": "address"
        },
        {
          "internalType": "address",
          "name": "recipient",
          "type": "address"
        },
        {
          "internalType": "uint256",
          "name": "amount",
          "type": "uint256"
        }
      ],
      "name": "transferFrom",
      "outputs": [
        {
          "internalType": "bool",
          "name": "",
          "type": "bool"
        }
      ],
      "stateMutability": "nonpayable",
      "type": "function"
    },
    {
      "inputs": [
        {
          "internalType": "address",
          "name": "spender",
          "type": "address"
        },
        {
          "internalType": "uint256",
          "name": "amount",
          "type": "uint256"
        }
      ],
      "name": "increaseAllowance",
      "outputs": [
        {
          "internalType": "bool",
          "name": "",
          "type": "bool"
        }
      ],
      "stateMutability": "nonpayable",
      "type": "function"
    },
    {
      "inputs": [
        {
          "internalType": "address",
          "name": "spender",
          "type": "address"
        },
        {
          "internalType": "uint256",
          "name": "amount",
          "type": "uint256"
        }
      ],
      "name": "decreaseAllowance",
      "outputs": [
        {
          "internalType": "bool",
          "name": "",
          "type": "bool"
        }
      ],
      "stateMutability": "nonpayable",
      "type": "function"
    },
    {
      "inputs": [
        {
          "internalType": "uint256",
          "name": "amount",
          "type": "uint256"
        }
      ],
      "name": "stake",
      "outputs": [],
      "stateMutability": "nonpayable",
      "type": "function"
    },
    {
      "inputs": [],
      "name": "claim",
      "outputs": [],
      "stateMutability": "nonpayable",
      "type": "function"
    },
    {
      "inputs": [
        {
          "internalType": "uint256",
          "name": "amount",
          "type": "uint256"
        }
      ],
      "name": "unstake",
      "outputs": [],
      "stateMutability": "nonpayable",
      "type": "function"
    },
    {
      "inputs": [
        {
          "internalType": "address",
          "name": "addr",
          "type": "address"
        }
      ],
      "name": "getStake",
      "outputs": [
        {
          "internalType": "uint256",
          "name": "",
          "type": "uint256"
        },
        {
          "internalType": "uint256",
          "name": "",
          "type": "uint256"
        },
        {
          "internalType": "uint256",
          "name": "",
          "type": "uint256"
        }
      ],
      "stateMutability": "view",
      "type": "function",
      "constant": true
    },
    {
      "inputs": [
        {
          "internalType": "address",
          "name": "addr",
          "type": "address"
        },
        {
          "internalType": "uint256",
          "name": "amount",
          "type": "uint256"
        },
        {
          "internalType": "uint256",
          "name": "fee",
          "type": "uint256"
        }
      ],
      "name": "claimref",
      "outputs": [
        {
          "internalType": "uint256",
          "name": "",
          "type": "uint256"
        }
      ],
      "stateMutability": "nonpayable",
      "type": "function"
    },
    {
      "inputs": [],
      "name": "getSpclBal",
      "outputs": [
        {
          "internalType": "uint256",
          "name": "",
          "type": "uint256"
        },
        {
          "internalType": "uint256",
          "name": "",
          "type": "uint256"
        },
        {
          "internalType": "uint256",
          "name": "",
          "type": "uint256"
        },
        {
          "internalType": "bool",
          "name": "",
          "type": "bool"
        },
        {
          "internalType": "bool",
          "name": "",
          "type": "bool"
        }
      ],
      "stateMutability": "view",
      "type": "function",
      "constant": true
    },
    {
      "inputs": [
        {
          "internalType": "uint256",
          "name": "amount",
          "type": "uint256"
        },
        {
          "internalType": "bool",
          "name": "isAdd",
          "type": "bool"
        }
      ],
      "name": "stakerAdj",
      "outputs": [
        {
          "internalType": "uint256",
          "name": "",
          "type": "uint256"
        }
      ],
      "stateMutability": "nonpayable",
      "type": "function"
    },
    {
      "inputs": [
        {
          "internalType": "uint256",
          "name": "amount",
          "type": "uint256"
        },
        {
          "internalType": "bool",
          "name": "isAdd",
          "type": "bool"
        }
      ],
      "name": "rewarderAdj",
      "outputs": [
        {
          "internalType": "uint256",
          "name": "",
          "type": "uint256"
        }
      ],
      "stateMutability": "nonpayable",
      "type": "function"
    },
    {
      "inputs": [
        {
          "internalType": "uint256",
          "name": "max",
          "type": "uint256"
        }
      ],
      "name": "getStkCol",
      "outputs": [
        {
          "components": [
            {
              "internalType": "uint256",
              "name": "bno",
              "type": "uint256"
            },
            {
              "internalType": "address",
              "name": "addr",
              "type": "address"
            },
            {
              "internalType": "uint256",
              "name": "amt",
              "type": "uint256"
            },
            {
              "internalType": "uint256",
              "name": "ts",
              "type": "uint256"
            }
          ],
          "internalType": "struct Token.StakedCol[]",
          "name": "",
          "type": "tuple[]"
        }
      ],
      "stateMutability": "view",
      "type": "function",
      "constant": true
    },
    {
      "inputs": [
        {
          "internalType": "uint256",
          "name": "max",
          "type": "uint256"
        }
      ],
      "name": "getUtkCol",
      "outputs": [
        {
          "components": [
            {
              "internalType": "uint256",
              "name": "bno",
              "type": "uint256"
            },
            {
              "internalType": "address",
              "name": "addr",
              "type": "address"
            },
            {
              "internalType": "uint256",
              "name": "amt",
              "type": "uint256"
            },
            {
              "internalType": "uint256",
              "name": "ts",
              "type": "uint256"
            }
          ],
          "internalType": "struct Token.UnStakedCol[]",
          "name": "",
          "type": "tuple[]"
        }
      ],
      "stateMutability": "view",
      "type": "function",
      "constant": true
    },
    {
      "inputs": [],
      "name": "getStats",
      "outputs": [
        {
          "internalType": "uint256[5]",
          "name": "",
          "type": "uint256[5]"
        }
      ],
      "stateMutability": "view",
      "type": "function",
      "constant": true
    },
    {
      "inputs": [
        {
          "internalType": "bool",
          "name": "action",
          "type": "bool"
        }
      ],
      "name": "stkStatus",
      "outputs": [],
      "stateMutability": "nonpayable",
      "type": "function"
    },
    {
      "inputs": [
        {
          "internalType": "bool",
          "name": "action",
          "type": "bool"
        }
      ],
      "name": "clmStatus",
      "outputs": [],
      "stateMutability": "nonpayable",
      "type": "function"
    }
  ],
  "bytecode": "0x60806040526103e86009556301b77400600a556005600f556005601055620f42406011556001601355600060145560006015556000601655600060175560006018556000601960006101000a81548160ff0219169083151502179055506000601960016101000a81548160ff0219169083151502179055506000601a55604051620066a9380380620066a98339818101604052810190620000a1919062000698565b620000c1620000b56200019860201b60201c565b620001a060201b60201c565b84600e9080519060200190620000d992919062000410565b5083600d9080519060200190620000f292919062000410565b5082600c819055506200011c3362000110846200026460201b60201c565b6200028b60201b60201c565b806014819055503373ffffffffffffffffffffffffffffffffffffffff16600073ffffffffffffffffffffffffffffffffffffffff167fddf252ad1be2c89b69c2b068fc378daa952ba7f163c4a11628f55a4df523b3ef600b546040516200018591906200076f565b60405180910390a3505050505062000b06565b600033905090565b60008060009054906101000a900473ffffffffffffffffffffffffffffffffffffffff169050816000806101000a81548173ffffffffffffffffffffffffffffffffffffffff021916908373ffffffffffffffffffffffffffffffffffffffff1602179055508173ffffffffffffffffffffffffffffffffffffffff168173ffffffffffffffffffffffffffffffffffffffff167f8be0079c531659141344cd1fd0a4f28419497f9722a3daafe3b4186f6b6457e060405160405180910390a35050565b6000600c54600a6200027791906200090f565b8262000284919062000960565b9050919050565b600073ffffffffffffffffffffffffffffffffffffffff168273ffffffffffffffffffffffffffffffffffffffff161415620002fe576040517f08c379a0000000000000000000000000000000000000000000000000000000008152600401620002f59062000a22565b60405180910390fd5b80600b546200030e919062000a44565b600b8190555080601d60008473ffffffffffffffffffffffffffffffffffffffff1673ffffffffffffffffffffffffffffffffffffffff1681526020019081526020016000205462000361919062000a44565b601d60008473ffffffffffffffffffffffffffffffffffffffff1673ffffffffffffffffffffffffffffffffffffffff168152602001908152602001600020819055508173ffffffffffffffffffffffffffffffffffffffff16600073ffffffffffffffffffffffffffffffffffffffff167fddf252ad1be2c89b69c2b068fc378daa952ba7f163c4a11628f55a4df523b3ef836040516200040491906200076f565b60405180910390a35050565b8280546200041e9062000ad0565b90600052602060002090601f0160209004810192826200044257600085556200048e565b82601f106200045d57805160ff19168380011785556200048e565b828001600101855582156200048e579182015b828111156200048d57825182559160200191906001019062000470565b5b5090506200049d9190620004a1565b5090565b5b80821115620004bc576000816000905550600101620004a2565b5090565b6000604051905090565b600080fd5b600080fd5b600080fd5b600080fd5b6000601f19601f8301169050919050565b7f4e487b7100000000000000000000000000000000000000000000000000000000600052604160045260246000fd5b6200052982620004de565b810181811067ffffffffffffffff821117156200054b576200054a620004ef565b5b80604052505050565b600062000560620004c0565b90506200056e82826200051e565b919050565b600067ffffffffffffffff821115620005915762000590620004ef565b5b6200059c82620004de565b9050602081019050919050565b60005b83811015620005c9578082015181840152602081019050620005ac565b83811115620005d9576000848401525b50505050565b6000620005f6620005f08462000573565b62000554565b905082815260208101848484011115620006155762000614620004d9565b5b62000622848285620005a9565b509392505050565b600082601f830112620006425762000641620004d4565b5b815162000654848260208601620005df565b91505092915050565b6000819050919050565b62000672816200065d565b81146200067e57600080fd5b50565b600081519050620006928162000667565b92915050565b600080600080600060a08688031215620006b757620006b6620004ca565b5b600086015167ffffffffffffffff811115620006d857620006d7620004cf565b5b620006e6888289016200062a565b955050602086015167ffffffffffffffff8111156200070a5762000709620004cf565b5b62000718888289016200062a565b94505060406200072b8882890162000681565b93505060606200073e8882890162000681565b9250506080620007518882890162000681565b9150509295509295909350565b62000769816200065d565b82525050565b60006020820190506200078660008301846200075e565b92915050565b7f4e487b7100000000000000000000000000000000000000000000000000000000600052601160045260246000fd5b60008160011c9050919050565b6000808291508390505b60018511156200081a57808604811115620007f257620007f16200078c565b5b6001851615620008025780820291505b80810290506200081285620007bb565b9450620007d2565b94509492505050565b60008262000835576001905062000908565b8162000845576000905062000908565b81600181146200085e576002811462000869576200089f565b600191505062000908565b60ff8411156200087e576200087d6200078c565b5b8360020a9150848211156200089857620008976200078c565b5b5062000908565b5060208310610133831016604e8410600b8410161715620008d95782820a905083811115620008d357620008d26200078c565b5b62000908565b620008e88484846001620007c8565b925090508184048111156200090257620009016200078c565b5b81810290505b9392505050565b60006200091c826200065d565b915062000929836200065d565b9250620009587fffffffffffffffffffffffffffffffffffffffffffffffffffffffffffffffff848462000823565b905092915050565b60006200096d826200065d565b91506200097a836200065d565b9250817fffffffffffffffffffffffffffffffffffffffffffffffffffffffffffffffff0483118215151615620009b657620009b56200078c565b5b828202905092915050565b600082825260208201905092915050565b7f43616e6e6f74206d696e7420746f207a65726f20616464726573730000000000600082015250565b600062000a0a601b83620009c1565b915062000a1782620009d2565b602082019050919050565b6000602082019050818103600083015262000a3d81620009fb565b9050919050565b600062000a51826200065d565b915062000a5e836200065d565b9250827fffffffffffffffffffffffffffffffffffffffffffffffffffffffffffffffff0382111562000a965762000a956200078c565b5b828201905092915050565b7f4e487b7100000000000000000000000000000000000000000000000000000000600052602260045260246000fd5b6000600282049050600182168062000ae957607f821691505b6020821081141562000b005762000aff62000aa1565b5b50919050565b615b938062000b166000396000f3fe60806040526004361061026b5760003560e01c80637a76646011610144578063b3dab79f116100b6578063d7f38bdd1161007a578063d7f38bdd14610ad7578063dd62ed3e14610b02578063de14cb6c14610b3f578063e654bd2e14610b68578063ebe4a35314610ba5578063f2fde38b14610be557610301565b8063b3dab79f146109c9578063b6f85830146109f2578063c4d363d314610a32578063c59d484714610a6f578063d55bf21a14610a9a57610301565b806395d89b411161010857806395d89b41146108a757806397b0e33c146108d2578063a457c2d7146108fd578063a694fc3a1461093a578063a9059cbb14610963578063aa31c7c9146109a057610301565b80637a766460146107be578063823b8a59146107fd578063893d20e814610828578063897c198f146108535780638da5cb5b1461087c57610301565b8063336feaad116101dd5780634e71d92d116101a15780634e71d92d146106d45780635c0f8291146106eb57806361241c281461071657806365bbe9711461073f57806370a082311461076a578063715018a6146107a757610301565b8063336feaad146105c757806339509351146105f257806340c10f191461062f57806342966c681461066c57806349742b62146106a957610301565b80632126a38b1161022f5780632126a38b1461049f57806323b872dd146104ce5780632e17de781461050b578063313ce567146105345780633240d76c1461055f578063334fe07c1461059c57610301565b8063021822461461039257806306fdde03146103cf578063095ea7b3146103fa57806318160ddd146104375780631b9c9c791461046257610301565b3661030157601260009054906101000a900473ffffffffffffffffffffffffffffffffffffffff1673ffffffffffffffffffffffffffffffffffffffff1663efef39a16013546040518263ffffffff1660e01b81526004016102cd9190614127565b600060405180830381600087803b1580156102e757600080fd5b505af11580156102fb573d6000803e3d6000fd5b50505050005b601260009054906101000a900473ffffffffffffffffffffffffffffffffffffffff1673ffffffffffffffffffffffffffffffffffffffff1663efef39a16013546040518263ffffffff1660e01b815260040161035e9190614127565b600060405180830381600087803b15801561037857600080fd5b505af115801561038c573d6000803e3d6000fd5b50505050005b34801561039e57600080fd5b506103b960048036038101906103b49190614182565b610c0e565b6040516103c69190614303565b60405180910390f35b3480156103db57600080fd5b506103e4610d9d565b6040516103f191906143be565b60405180910390f35b34801561040657600080fd5b50610421600480360381019061041c919061440c565b610e2f565b60405161042e9190614467565b60405180910390f35b34801561044357600080fd5b5061044c610e46565b6040516104599190614127565b60405180910390f35b34801561046e57600080fd5b50610489600480360381019061048491906144ae565b610e50565b6040516104969190614127565b60405180910390f35b3480156104ab57600080fd5b506104b4610fd0565b6040516104c59594939291906144ee565b60405180910390f35b3480156104da57600080fd5b506104f560048036038101906104f09190614541565b611181565b6040516105029190614467565b60405180910390f35b34801561051757600080fd5b50610532600480360381019061052d9190614182565b6112ea565b005b34801561054057600080fd5b50610549611511565b6040516105569190614127565b60405180910390f35b34801561056b57600080fd5b5061058660048036038101906105819190614182565b61151b565b6040516105939190614127565b60405180910390f35b3480156105a857600080fd5b506105b1611700565b6040516105be9190614127565b60405180910390f35b3480156105d357600080fd5b506105dc611706565b6040516105e99190614467565b60405180910390f35b3480156105fe57600080fd5b506106196004803603810190610614919061440c565b611719565b6040516106269190614467565b60405180910390f35b34801561063b57600080fd5b506106566004803603810190610651919061440c565b6117c2565b6040516106639190614467565b60405180910390f35b34801561067857600080fd5b50610693600480360381019061068e9190614182565b61185c565b6040516106a09190614467565b60405180910390f35b3480156106b557600080fd5b506106be611879565b6040516106cb9190614467565b60405180910390f35b3480156106e057600080fd5b506106e9611890565b005b3480156106f757600080fd5b506107006119bd565b60405161070d9190614127565b60405180910390f35b34801561072257600080fd5b5061073d60048036038101906107389190614182565b6119c3565b005b34801561074b57600080fd5b50610754611a49565b6040516107619190614127565b60405180910390f35b34801561077657600080fd5b50610791600480360381019061078c9190614594565b611a4f565b60405161079e9190614127565b60405180910390f35b3480156107b357600080fd5b506107bc611a98565b005b3480156107ca57600080fd5b506107e560048036038101906107e09190614594565b611b20565b6040516107f4939291906145c1565b60405180910390f35b34801561080957600080fd5b50610812611b3b565b60405161081f9190614127565b60405180910390f35b34801561083457600080fd5b5061083d611b41565b60405161084a9190614607565b60405180910390f35b34801561085f57600080fd5b5061087a60048036038101906108759190614594565b611b50565b005b34801561088857600080fd5b50610891611c10565b60405161089e9190614607565b60405180910390f35b3480156108b357600080fd5b506108bc611c39565b6040516108c991906143be565b60405180910390f35b3480156108de57600080fd5b506108e7611ccb565b6040516108f49190614127565b60405180910390f35b34801561090957600080fd5b50610924600480360381019061091f919061440c565b611cd1565b6040516109319190614467565b60405180910390f35b34801561094657600080fd5b50610961600480360381019061095c9190614182565b611d7a565b005b34801561096f57600080fd5b5061098a6004803603810190610985919061440c565b611faa565b6040516109979190614467565b60405180910390f35b3480156109ac57600080fd5b506109c760048036038101906109c29190614182565b611fc1565b005b3480156109d557600080fd5b506109f060048036038101906109eb9190614622565b612047565b005b3480156109fe57600080fd5b50610a196004803603810190610a149190614182565b6120e0565b604051610a29949392919061464f565b60405180910390f35b348015610a3e57600080fd5b50610a596004803603810190610a549190614694565b612140565b604051610a669190614127565b60405180910390f35b348015610a7b57600080fd5b50610a8461238c565b604051610a919190614783565b60405180910390f35b348015610aa657600080fd5b50610ac16004803603810190610abc9190614182565b612443565b604051610ace91906148a2565b60405180910390f35b348015610ae357600080fd5b50610aec6125d2565b604051610af99190614467565b60405180910390f35b348015610b0e57600080fd5b50610b296004803603810190610b2491906148c4565b6125e5565b604051610b369190614127565b60405180910390f35b348015610b4b57600080fd5b50610b666004803603810190610b619190614622565b61266c565b005b348015610b7457600080fd5b50610b8f6004803603810190610b8a91906144ae565b612705565b604051610b9c9190614127565b60405180910390f35b348015610bb157600080fd5b50610bcc6004803603810190610bc79190614182565b612885565b604051610bdc949392919061464f565b60405180910390f35b348015610bf157600080fd5b50610c0c6004803603810190610c079190614594565b6128e5565b005b606060008267ffffffffffffffff811115610c2c57610c2b614904565b5b604051908082528060200260200182016040528015610c6557816020015b610c52614070565b815260200190600190039081610c4a5790505b5090506001601b805490501015610c7f5780915050610d98565b60006001601b80549050610c939190614962565b905060005b84811015610d91576000601b8284610cb09190614962565b81548110610cc157610cc0614996565b5b9060005260206000209060040201604051806080016040529081600082015481526020016001820160009054906101000a900473ffffffffffffffffffffffffffffffffffffffff1673ffffffffffffffffffffffffffffffffffffffff1673ffffffffffffffffffffffffffffffffffffffff16815260200160028201548152602001600382015481525050905080848381518110610d6457610d63614996565b5b602002602001018190525081831415610d7d5750610d91565b508080610d89906149c5565b915050610c98565b5081925050505b919050565b6060600e8054610dac90614a3d565b80601f0160208091040260200160405190810160405280929190818152602001828054610dd890614a3d565b8015610e255780601f10610dfa57610100808354040283529160200191610e25565b820191906000526020600020905b815481529060010190602001808311610e0857829003601f168201915b5050505050905090565b6000610e3c3384846129dd565b6001905092915050565b6000600b54905090565b6000610e5a612ba8565b73ffffffffffffffffffffffffffffffffffffffff16610e78611c10565b73ffffffffffffffffffffffffffffffffffffffff1614610ece576040517f08c379a0000000000000000000000000000000000000000000000000000000008152600401610ec590614abb565b60405180910390fd5b60008311610f11576040517f08c379a0000000000000000000000000000000000000000000000000000000008152600401610f0890614b27565b60405180910390fd5b610f1a83612bb0565b92508115610f4d57610f48610f2d611c10565b735206d8be5993fc07aba3f569ded43c52b58bd11f85612bd3565b610f74565b610f73735206d8be5993fc07aba3f569ded43c52b58bd11f610f6d611c10565b85612bd3565b5b601d6000735206d8be5993fc07aba3f569ded43c52b58bd11f73ffffffffffffffffffffffffffffffffffffffff1673ffffffffffffffffffffffffffffffffffffffff16815260200190815260200160002054905092915050565b6000806000806000610fe0612ba8565b73ffffffffffffffffffffffffffffffffffffffff16610ffe611c10565b73ffffffffffffffffffffffffffffffffffffffff1614611054576040517f08c379a000000000000000000000000000000000000000000000000000000000815260040161104b90614abb565b60405180910390fd5b601d6000735206d8be5993fc07aba3f569ded43c52b58bd11f73ffffffffffffffffffffffffffffffffffffffff1673ffffffffffffffffffffffffffffffffffffffff16815260200190815260200160002054601d60007348ff4ff2dd19306c06d21dafcf747578805075db73ffffffffffffffffffffffffffffffffffffffff1673ffffffffffffffffffffffffffffffffffffffff16815260200190815260200160002054601d600073f94d878f9491894efc06c76fd62a35985f0c28bc73ffffffffffffffffffffffffffffffffffffffff1673ffffffffffffffffffffffffffffffffffffffff16815260200190815260200160002054601960009054906101000a900460ff16601960019054906101000a900460ff16945094509450945094509091929394565b600081601e60008673ffffffffffffffffffffffffffffffffffffffff1673ffffffffffffffffffffffffffffffffffffffff16815260200190815260200160002060003373ffffffffffffffffffffffffffffffffffffffff1673ffffffffffffffffffffffffffffffffffffffff168152602001908152602001600020541015611242576040517f08c379a000000000000000000000000000000000000000000000000000000000815260040161123990614bb9565b60405180910390fd5b61124d848484612bd3565b6112df843384601e60008973ffffffffffffffffffffffffffffffffffffffff1673ffffffffffffffffffffffffffffffffffffffff16815260200190815260200160002060003373ffffffffffffffffffffffffffffffffffffffff1673ffffffffffffffffffffffffffffffffffffffff168152602001908152602001600020546112da9190614962565b6129dd565b600190509392505050565b6000811161132d576040517f08c379a000000000000000000000000000000000000000000000000000000000815260040161132490614c25565b60405180910390fd5b61133681612bb0565b905060008061134483612ebb565b9150915060004290506000828261135b9190614962565b905060145481111561138b5761138673a9e4fa7a2c0ea3f48b1b63b84eeee9945ab231673386612bd3565b61141c565b60006113b560646113a7600f54886131e590919063ffffffff16565b6131fb90919063ffffffff16565b9050600081866113c59190614962565b90506113e673a9e4fa7a2c0ea3f48b1b63b84eeee9945ab231673383612bd3565b61141973a9e4fa7a2c0ea3f48b1b63b84eeee9945ab2316773f94d878f9491894efc06c76fd62a35985f0c28bc84612bd3565b50505b601554851161143857846015546114339190614962565b61143b565b60005b601581905550601c60405180608001604052804381526020013373ffffffffffffffffffffffffffffffffffffffff1681526020018681526020014281525090806001815401808255809150506001900390600052602060002090600402016000909190919091506000820151816000015560208201518160010160006101000a81548173ffffffffffffffffffffffffffffffffffffffff021916908373ffffffffffffffffffffffffffffffffffffffff160217905550604082015181600201556060820151816003015550505050505050565b6000600c54905090565b600080600267ffffffffffffffff81111561153957611538614904565b5b6040519080825280602002602001820160405280156115675781602001602082028036833780820191505090505b50905073bb4cdb9cbd36b01bd1cbaebf2de08d9173bc095c8160008151811061159357611592614996565b5b602002602001019073ffffffffffffffffffffffffffffffffffffffff16908173ffffffffffffffffffffffffffffffffffffffff168152505073e9e7cea3dedca5984780bafc599bd69add087d56816001815181106115f6576115f5614996565b5b602002602001019073ffffffffffffffffffffffffffffffffffffffff16908173ffffffffffffffffffffffffffffffffffffffff168152505060007310ed43c718714eb63d5aa57b78b54704e256024e905060008173ffffffffffffffffffffffffffffffffffffffff1663d06ca61f86856040518363ffffffff1660e01b8152600401611686929190614cf4565b600060405180830381865afa1580156116a3573d6000803e3d6000fd5b505050506040513d6000823e3d601f19601f820116820180604052508101906116cc9190614e52565b905080600184516116dd9190614962565b815181106116ee576116ed614996565b5b60200260200101519350505050919050565b601a5481565b601960019054906101000a900460ff1681565b600061172482612bb0565b91506117b8338484601e60003373ffffffffffffffffffffffffffffffffffffffff1673ffffffffffffffffffffffffffffffffffffffff16815260200190815260200160002060008873ffffffffffffffffffffffffffffffffffffffff1673ffffffffffffffffffffffffffffffffffffffff168152602001908152602001600020546117b39190614e9b565b6129dd565b6001905092915050565b60006117cc612ba8565b73ffffffffffffffffffffffffffffffffffffffff166117ea611c10565b73ffffffffffffffffffffffffffffffffffffffff1614611840576040517f08c379a000000000000000000000000000000000000000000000000000000000815260040161183790614abb565b60405180910390fd5b6118528361184d84612bb0565b613211565b6001905092915050565b60006118703361186b84612bb0565b61338d565b60019050919050565b6000601960019054906101000a900460ff16905090565b601960019054906101000a900460ff16156118e0576040517f08c379a00000000000000000000000000000000000000000000000000000000081526004016118d790614f3d565b60405180910390fd5b60006118ea61358b565b905080601d6000735206d8be5993fc07aba3f569ded43c52b58bd11f73ffffffffffffffffffffffffffffffffffffffff1673ffffffffffffffffffffffffffffffffffffffff168152602001908152602001600020541015611982576040517f08c379a000000000000000000000000000000000000000000000000000000000815260040161197990614fcf565b60405180910390fd5b80601660008282546119949190614e9b565b925050819055506119ba735206d8be5993fc07aba3f569ded43c52b58bd11f3383612bd3565b50565b60185481565b6119cb612ba8565b73ffffffffffffffffffffffffffffffffffffffff166119e9611c10565b73ffffffffffffffffffffffffffffffffffffffff1614611a3f576040517f08c379a0000000000000000000000000000000000000000000000000000000008152600401611a3690614abb565b60405180910390fd5b8060118190555050565b60155481565b6000601d60008373ffffffffffffffffffffffffffffffffffffffff1673ffffffffffffffffffffffffffffffffffffffff168152602001908152602001600020549050919050565b611aa0612ba8565b73ffffffffffffffffffffffffffffffffffffffff16611abe611c10565b73ffffffffffffffffffffffffffffffffffffffff1614611b14576040517f08c379a0000000000000000000000000000000000000000000000000000000008152600401611b0b90614abb565b60405180910390fd5b611b1e600061399f565b565b6000806000611b2e84613a63565b9250925092509193909250565b60175481565b6000611b4b611c10565b905090565b611b58612ba8565b73ffffffffffffffffffffffffffffffffffffffff16611b76611c10565b73ffffffffffffffffffffffffffffffffffffffff1614611bcc576040517f08c379a0000000000000000000000000000000000000000000000000000000008152600401611bc390614abb565b60405180910390fd5b80601260006101000a81548173ffffffffffffffffffffffffffffffffffffffff021916908373ffffffffffffffffffffffffffffffffffffffff16021790555050565b60008060009054906101000a900473ffffffffffffffffffffffffffffffffffffffff16905090565b6060600d8054611c4890614a3d565b80601f0160208091040260200160405190810160405280929190818152602001828054611c7490614a3d565b8015611cc15780601f10611c9657610100808354040283529160200191611cc1565b820191906000526020600020905b815481529060010190602001808311611ca457829003601f168201915b5050505050905090565b60165481565b6000611cdc82612bb0565b9150611d70338484601e60003373ffffffffffffffffffffffffffffffffffffffff1673ffffffffffffffffffffffffffffffffffffffff16815260200190815260200160002060008873ffffffffffffffffffffffffffffffffffffffff1673ffffffffffffffffffffffffffffffffffffffff16815260200190815260200160002054611d6b9190614962565b6129dd565b6001905092915050565b601960009054906101000a900460ff1615611dca576040517f08c379a0000000000000000000000000000000000000000000000000000000008152600401611dc19061503b565b60405180910390fd5b60008111611e0d576040517f08c379a0000000000000000000000000000000000000000000000000000000008152600401611e04906150a7565b60405180910390fd5b611e1681612bb0565b9050601d60003373ffffffffffffffffffffffffffffffffffffffff1673ffffffffffffffffffffffffffffffffffffffff16815260200190815260200160002054811115611e9a576040517f08c379a0000000000000000000000000000000000000000000000000000000008152600401611e9190615113565b60405180910390fd5b611ea681601454613b7e565b611ec53373a9e4fa7a2c0ea3f48b1b63b84eeee9945ab2316783612bd3565b8060156000828254611ed79190614e9b565b92505081905550601b60405180608001604052804381526020013373ffffffffffffffffffffffffffffffffffffffff1681526020018381526020014281525090806001815401808255809150506001900390600052602060002090600402016000909190919091506000820151816000015560208201518160010160006101000a81548173ffffffffffffffffffffffffffffffffffffffff021916908373ffffffffffffffffffffffffffffffffffffffff1602179055506040820151816002015560608201518160030155505050565b6000611fb7338484612bd3565b6001905092915050565b611fc9612ba8565b73ffffffffffffffffffffffffffffffffffffffff16611fe7611c10565b73ffffffffffffffffffffffffffffffffffffffff161461203d576040517f08c379a000000000000000000000000000000000000000000000000000000000815260040161203490614abb565b60405180910390fd5b8060138190555050565b61204f612ba8565b73ffffffffffffffffffffffffffffffffffffffff1661206d611c10565b73ffffffffffffffffffffffffffffffffffffffff16146120c3576040517f08c379a00000000000000000000000000000000000000000000000000000000081526004016120ba90614abb565b60405180910390fd5b80601960006101000a81548160ff02191690831515021790555050565b601c81815481106120f057600080fd5b90600052602060002090600402016000915090508060000154908060010160009054906101000a900473ffffffffffffffffffffffffffffffffffffffff16908060020154908060030154905084565b60007348ff4ff2dd19306c06d21dafcf747578805075db73ffffffffffffffffffffffffffffffffffffffff163373ffffffffffffffffffffffffffffffffffffffff16146121c4576040517f08c379a00000000000000000000000000000000000000000000000000000000081526004016121bb9061517f565b60405180910390fd5b60008311612207576040517f08c379a00000000000000000000000000000000000000000000000000000000081526004016121fe906151eb565b60405180910390fd5b600082846122159190614e9b565b905080601d60007348ff4ff2dd19306c06d21dafcf747578805075db73ffffffffffffffffffffffffffffffffffffffff1673ffffffffffffffffffffffffffffffffffffffff1681526020019081526020016000205410156122ad576040517f08c379a00000000000000000000000000000000000000000000000000000000081526004016122a490615257565b60405180910390fd5b6122cc7348ff4ff2dd19306c06d21dafcf747578805075db8686612bd3565b6122ff7348ff4ff2dd19306c06d21dafcf747578805075db73f94d878f9491894efc06c76fd62a35985f0c28bc85612bd3565b8473ffffffffffffffffffffffffffffffffffffffff167f395e3f0b5b5589fd46ed991d43f022a4984df3ce6c86e732fcb9008f72dadaa48585604051612347929190615277565b60405180910390a282601a60008282546123619190614e9b565b92505081905550836018600082825461237a9190614e9b565b92505081905550839150509392505050565b6123946140ae565b61239c6140ae565b601554816000600581106123b3576123b2614996565b5b602002018181525050601654816001600581106123d3576123d2614996565b5b602002018181525050601754816002600581106123f3576123f2614996565b5b6020020181815250506018548160036005811061241357612412614996565b5b602002018181525050601a548160046005811061243357612432614996565b5b6020020181815250508091505090565b606060008267ffffffffffffffff81111561246157612460614904565b5b60405190808252806020026020018201604052801561249a57816020015b6124876140d0565b81526020019060019003908161247f5790505b5090506001601c8054905010156124b457809150506125cd565b60006001601c805490506124c89190614962565b905060005b848110156125c6576000601c82846124e59190614962565b815481106124f6576124f5614996565b5b9060005260206000209060040201604051806080016040529081600082015481526020016001820160009054906101000a900473ffffffffffffffffffffffffffffffffffffffff1673ffffffffffffffffffffffffffffffffffffffff1673ffffffffffffffffffffffffffffffffffffffff1681526020016002820154815260200160038201548152505090508084838151811061259957612598614996565b5b6020026020010181905250818314156125b257506125c6565b5080806125be906149c5565b9150506124cd565b5081925050505b919050565b601960009054906101000a900460ff1681565b6000601e60008473ffffffffffffffffffffffffffffffffffffffff1673ffffffffffffffffffffffffffffffffffffffff16815260200190815260200160002060008373ffffffffffffffffffffffffffffffffffffffff1673ffffffffffffffffffffffffffffffffffffffff16815260200190815260200160002054905092915050565b612674612ba8565b73ffffffffffffffffffffffffffffffffffffffff16612692611c10565b73ffffffffffffffffffffffffffffffffffffffff16146126e8576040517f08c379a00000000000000000000000000000000000000000000000000000000081526004016126df90614abb565b60405180910390fd5b80601960016101000a81548160ff02191690831515021790555050565b600061270f612ba8565b73ffffffffffffffffffffffffffffffffffffffff1661272d611c10565b73ffffffffffffffffffffffffffffffffffffffff1614612783576040517f08c379a000000000000000000000000000000000000000000000000000000000815260040161277a90614abb565b60405180910390fd5b600083116127c6576040517f08c379a00000000000000000000000000000000000000000000000000000000081526004016127bd90614b27565b60405180910390fd5b6127cf83612bb0565b92508115612802576127fd6127e2611c10565b7348ff4ff2dd19306c06d21dafcf747578805075db85612bd3565b612829565b6128287348ff4ff2dd19306c06d21dafcf747578805075db612822611c10565b85612bd3565b5b601d60007348ff4ff2dd19306c06d21dafcf747578805075db73ffffffffffffffffffffffffffffffffffffffff1673ffffffffffffffffffffffffffffffffffffffff16815260200190815260200160002054905092915050565b601b818154811061289557600080fd5b90600052602060002090600402016000915090508060000154908060010160009054906101000a900473ffffffffffffffffffffffffffffffffffffffff16908060020154908060030154905084565b6128ed612ba8565b73ffffffffffffffffffffffffffffffffffffffff1661290b611c10565b73ffffffffffffffffffffffffffffffffffffffff1614612961576040517f08c379a000000000000000000000000000000000000000000000000000000000815260040161295890614abb565b60405180910390fd5b600073ffffffffffffffffffffffffffffffffffffffff168173ffffffffffffffffffffffffffffffffffffffff1614156129d1576040517f08c379a00000000000000000000000000000000000000000000000000000000081526004016129c890615312565b60405180910390fd5b6129da8161399f565b50565b600073ffffffffffffffffffffffffffffffffffffffff168373ffffffffffffffffffffffffffffffffffffffff161415612a4d576040517f08c379a0000000000000000000000000000000000000000000000000000000008152600401612a44906153a4565b60405180910390fd5b600073ffffffffffffffffffffffffffffffffffffffff168273ffffffffffffffffffffffffffffffffffffffff161415612abd576040517f08c379a0000000000000000000000000000000000000000000000000000000008152600401612ab490615436565b60405180910390fd5b80601e60008573ffffffffffffffffffffffffffffffffffffffff1673ffffffffffffffffffffffffffffffffffffffff16815260200190815260200160002060008473ffffffffffffffffffffffffffffffffffffffff1673ffffffffffffffffffffffffffffffffffffffff168152602001908152602001600020819055508173ffffffffffffffffffffffffffffffffffffffff168373ffffffffffffffffffffffffffffffffffffffff167f8c5be1e5ebec7d5bd14f71427d1e84f3dd0314c0f7b2291e5b200ac8c7c3b92583604051612b9b9190614127565b60405180910390a3505050565b600033905090565b6000600c54600a612bc19190615589565b82612bcc91906155d4565b9050919050565b600073ffffffffffffffffffffffffffffffffffffffff168373ffffffffffffffffffffffffffffffffffffffff161415612c43576040517f08c379a0000000000000000000000000000000000000000000000000000000008152600401612c3a906156a0565b60405180910390fd5b600073ffffffffffffffffffffffffffffffffffffffff168273ffffffffffffffffffffffffffffffffffffffff161415612cb3576040517f08c379a0000000000000000000000000000000000000000000000000000000008152600401612caa9061570c565b60405180910390fd5b80601d60008573ffffffffffffffffffffffffffffffffffffffff1673ffffffffffffffffffffffffffffffffffffffff168152602001908152602001600020541015612d35576040517f08c379a0000000000000000000000000000000000000000000000000000000008152600401612d2c9061579e565b60405180910390fd5b80601d60008573ffffffffffffffffffffffffffffffffffffffff1673ffffffffffffffffffffffffffffffffffffffff16815260200190815260200160002054612d809190614962565b601d60008573ffffffffffffffffffffffffffffffffffffffff1673ffffffffffffffffffffffffffffffffffffffff1681526020019081526020016000208190555080601d60008473ffffffffffffffffffffffffffffffffffffffff1673ffffffffffffffffffffffffffffffffffffffff16815260200190815260200160002054612e0e9190614e9b565b601d60008473ffffffffffffffffffffffffffffffffffffffff1673ffffffffffffffffffffffffffffffffffffffff168152602001908152602001600020819055508173ffffffffffffffffffffffffffffffffffffffff168373ffffffffffffffffffffffffffffffffffffffff167fddf252ad1be2c89b69c2b068fc378daa952ba7f163c4a11628f55a4df523b3ef83604051612eae9190614127565b60405180910390a3505050565b600080600080600360003373ffffffffffffffffffffffffffffffffffffffff1673ffffffffffffffffffffffffffffffffffffffff16815260200190815260200160002060009054906101000a900460ff16156131a5576000600160003373ffffffffffffffffffffffffffffffffffffffff1673ffffffffffffffffffffffffffffffffffffffff1681526020019081526020016000206040518060a00160405290816000820160009054906101000a900473ffffffffffffffffffffffffffffffffffffffff1673ffffffffffffffffffffffffffffffffffffffff1673ffffffffffffffffffffffffffffffffffffffff16815260200160018201548152602001600282015481526020016003820154815260200160048201548152505090508581602001511015613026576040517f08c379a000000000000000000000000000000000000000000000000000000000815260040161301d90615830565b60405180910390fd5b61302f8161403b565b915085816020018181516130439190614962565b91508181525050818160600181815161305c9190614e9b565b91508181525050806060015191504281604001818152505080600160003373ffffffffffffffffffffffffffffffffffffffff1673ffffffffffffffffffffffffffffffffffffffff16815260200190815260200160002060008201518160000160006101000a81548173ffffffffffffffffffffffffffffffffffffffff021916908373ffffffffffffffffffffffffffffffffffffffff1602179055506020820151816001015560408201518160020155606082015181600301556080820151816004015590505085600260008282546131389190614962565b925050819055503373ffffffffffffffffffffffffffffffffffffffff167fdcfd2b4017d03f7e541021db793b2f9b31e4acdee005f789e52853c390e3e9628785854260405161318b9493929190615850565b60405180910390a2858160800151945094505050506131e0565b6040517f08c379a00000000000000000000000000000000000000000000000000000000081526004016131d7906158e1565b60405180910390fd5b915091565b600081836131f391906155d4565b905092915050565b600081836132099190615930565b905092915050565b600073ffffffffffffffffffffffffffffffffffffffff168273ffffffffffffffffffffffffffffffffffffffff161415613281576040517f08c379a0000000000000000000000000000000000000000000000000000000008152600401613278906159ad565b60405180910390fd5b80600b5461328f9190614e9b565b600b8190555080601d60008473ffffffffffffffffffffffffffffffffffffffff1673ffffffffffffffffffffffffffffffffffffffff168152602001908152602001600020546132e09190614e9b565b601d60008473ffffffffffffffffffffffffffffffffffffffff1673ffffffffffffffffffffffffffffffffffffffff168152602001908152602001600020819055508173ffffffffffffffffffffffffffffffffffffffff16600073ffffffffffffffffffffffffffffffffffffffff167fddf252ad1be2c89b69c2b068fc378daa952ba7f163c4a11628f55a4df523b3ef836040516133819190614127565b60405180910390a35050565b600073ffffffffffffffffffffffffffffffffffffffff168273ffffffffffffffffffffffffffffffffffffffff1614156133fd576040517f08c379a00000000000000000000000000000000000000000000000000000000081526004016133f490615a3f565b60405180910390fd5b80601d60008473ffffffffffffffffffffffffffffffffffffffff1673ffffffffffffffffffffffffffffffffffffffff16815260200190815260200160002054101561347f576040517f08c379a000000000000000000000000000000000000000000000000000000000815260040161347690615ad1565b60405180910390fd5b80601d60008473ffffffffffffffffffffffffffffffffffffffff1673ffffffffffffffffffffffffffffffffffffffff168152602001908152602001600020546134ca9190614962565b601d60008473ffffffffffffffffffffffffffffffffffffffff1673ffffffffffffffffffffffffffffffffffffffff1681526020019081526020016000208190555080600b5461351b9190614962565b600b81905550600073ffffffffffffffffffffffffffffffffffffffff168273ffffffffffffffffffffffffffffffffffffffff167fddf252ad1be2c89b69c2b068fc378daa952ba7f163c4a11628f55a4df523b3ef8360405161357f9190614127565b60405180910390a35050565b600080600090506000600360003373ffffffffffffffffffffffffffffffffffffffff1673ffffffffffffffffffffffffffffffffffffffff16815260200190815260200160002060009054906101000a900460ff1615613908576000600160003373ffffffffffffffffffffffffffffffffffffffff1673ffffffffffffffffffffffffffffffffffffffff1681526020019081526020016000206040518060a00160405290816000820160009054906101000a900473ffffffffffffffffffffffffffffffffffffffff1673ffffffffffffffffffffffffffffffffffffffff1673ffffffffffffffffffffffffffffffffffffffff16815260200160018201548152602001600282015481526020016003820154815260200160048201548152505090506000816020015111806136c9575060008160600151115b156138c7576136d78161403b565b91508060600151826136e99190614e9b565b91506000816060018181525050600081602001511161370e5760008160800181815250505b4281604001818152505080600160003373ffffffffffffffffffffffffffffffffffffffff1673ffffffffffffffffffffffffffffffffffffffff16815260200190815260200160002060008201518160000160006101000a81548173ffffffffffffffffffffffffffffffffffffffff021916908373ffffffffffffffffffffffffffffffffffffffff1602179055506020820151816001015560408201518160020155606082015181600301556080820151816004015590505060008160200151111580156137e457506000816060015111155b156138c257600160003373ffffffffffffffffffffffffffffffffffffffff1673ffffffffffffffffffffffffffffffffffffffff168152602001908152602001600020600080820160006101000a81549073ffffffffffffffffffffffffffffffffffffffff021916905560018201600090556002820160009055600382016000905560048201600090555050600360003373ffffffffffffffffffffffffffffffffffffffff1673ffffffffffffffffffffffffffffffffffffffff16815260200190815260200160002060006101000a81549060ff02191690555b613902565b6040517f08c379a00000000000000000000000000000000000000000000000000000000081526004016138f9906158e1565b60405180910390fd5b50613943565b6040517f08c379a000000000000000000000000000000000000000000000000000000000815260040161393a906158e1565b60405180910390fd5b3373ffffffffffffffffffffffffffffffffffffffff167f7708755c9b641bf197be5047b04002d2e88fa658c173a351067747eb5dfc568a8284844260405161398f9493929190615850565b60405180910390a2809250505090565b60008060009054906101000a900473ffffffffffffffffffffffffffffffffffffffff169050816000806101000a81548173ffffffffffffffffffffffffffffffffffffffff021916908373ffffffffffffffffffffffffffffffffffffffff1602179055508173ffffffffffffffffffffffffffffffffffffffff168173ffffffffffffffffffffffffffffffffffffffff167f8be0079c531659141344cd1fd0a4f28419497f9722a3daafe3b4186f6b6457e060405160405180910390a35050565b600080600080600160008673ffffffffffffffffffffffffffffffffffffffff1673ffffffffffffffffffffffffffffffffffffffff1681526020019081526020016000206040518060a00160405290816000820160009054906101000a900473ffffffffffffffffffffffffffffffffffffffff1673ffffffffffffffffffffffffffffffffffffffff1673ffffffffffffffffffffffffffffffffffffffff1681526020016001820154815260200160028201548152602001600382015481526020016004820154815250509050600081602001511180613b4a575060008160600151115b15613b6a5780602001518160600151826040015193509350935050613b77565b6000806000935093509350505b9193909250565b60008211613bc1576040517f08c379a0000000000000000000000000000000000000000000000000000000008152600401613bb890615b3d565b60405180910390fd5b6000806000600360003373ffffffffffffffffffffffffffffffffffffffff1673ffffffffffffffffffffffffffffffffffffffff16815260200190815260200160002060009054906101000a900460ff1615613e73576000600160003373ffffffffffffffffffffffffffffffffffffffff1673ffffffffffffffffffffffffffffffffffffffff1681526020019081526020016000206040518060a00160405290816000820160009054906101000a900473ffffffffffffffffffffffffffffffffffffffff1673ffffffffffffffffffffffffffffffffffffffff1673ffffffffffffffffffffffffffffffffffffffff1681526020016001820154815260200160028201548152602001600382015481526020016004820154815250509050600081602001511115613cfd57613cfa8161403b565b91505b8581602001818151613d0f9190614e9b565b91508181525050428160400181815250508181606001818151613d329190614e9b565b91508181525050600081608001511115613d9b5760006002826080015142613d5a9190614e9b565b613d649190615930565b9050600286613d739190615930565b8142613d7f9190614962565b11613d8a5780613d8c565b425b82608001818152505050613da6565b428160800181815250505b8060600151915080600160003373ffffffffffffffffffffffffffffffffffffffff1673ffffffffffffffffffffffffffffffffffffffff16815260200190815260200160002060008201518160000160006101000a81548173ffffffffffffffffffffffffffffffffffffffff021916908373ffffffffffffffffffffffffffffffffffffffff16021790555060208201518160010155604082015181600201556060820151816003015560808201518160040155905050806020015193508060400151925050613f6f565b60006040518060a001604052803373ffffffffffffffffffffffffffffffffffffffff1681526020018781526020014281526020016000815260200142815250905080600160003373ffffffffffffffffffffffffffffffffffffffff1673ffffffffffffffffffffffffffffffffffffffff16815260200190815260200160002060008201518160000160006101000a81548173ffffffffffffffffffffffffffffffffffffffff021916908373ffffffffffffffffffffffffffffffffffffffff16021790555060208201518160010155604082015181600201556060820151816003015560808201518160040155905050859350429250505b8460026000828254613f819190614e9b565b925050819055506001600360003373ffffffffffffffffffffffffffffffffffffffff1673ffffffffffffffffffffffffffffffffffffffff16815260200190815260200160002060006101000a81548160ff0219169083151502179055503373ffffffffffffffffffffffffffffffffffffffff167f9cfd25589d1eb8ad71e342a86a8524e83522e3936c0803048c08f6d9ad974f408685848660405161402c9493929190615850565b60405180910390a25050505050565b6000600a5482602001518360400151426140559190614962565b61405f91906155d4565b6140699190615930565b9050919050565b604051806080016040528060008152602001600073ffffffffffffffffffffffffffffffffffffffff16815260200160008152602001600081525090565b6040518060a00160405280600590602082028036833780820191505090505090565b604051806080016040528060008152602001600073ffffffffffffffffffffffffffffffffffffffff16815260200160008152602001600081525090565b6000819050919050565b6141218161410e565b82525050565b600060208201905061413c6000830184614118565b92915050565b6000604051905090565b600080fd5b600080fd5b61415f8161410e565b811461416a57600080fd5b50565b60008135905061417c81614156565b92915050565b6000602082840312156141985761419761414c565b5b60006141a68482850161416d565b91505092915050565b600081519050919050565b600082825260208201905092915050565b6000819050602082019050919050565b6141e48161410e565b82525050565b600073ffffffffffffffffffffffffffffffffffffffff82169050919050565b6000614215826141ea565b9050919050565b6142258161420a565b82525050565b60808201600082015161424160008501826141db565b506020820151614254602085018261421c565b50604082015161426760408501826141db565b50606082015161427a60608501826141db565b50505050565b600061428c838361422b565b60808301905092915050565b6000602082019050919050565b60006142b0826141af565b6142ba81856141ba565b93506142c5836141cb565b8060005b838110156142f65781516142dd8882614280565b97506142e883614298565b9250506001810190506142c9565b5085935050505092915050565b6000602082019050818103600083015261431d81846142a5565b905092915050565b600081519050919050565b600082825260208201905092915050565b60005b8381101561435f578082015181840152602081019050614344565b8381111561436e576000848401525b50505050565b6000601f19601f8301169050919050565b600061439082614325565b61439a8185614330565b93506143aa818560208601614341565b6143b381614374565b840191505092915050565b600060208201905081810360008301526143d88184614385565b905092915050565b6143e98161420a565b81146143f457600080fd5b50565b600081359050614406816143e0565b92915050565b600080604083850312156144235761442261414c565b5b6000614431858286016143f7565b92505060206144428582860161416d565b9150509250929050565b60008115159050919050565b6144618161444c565b82525050565b600060208201905061447c6000830184614458565b92915050565b61448b8161444c565b811461449657600080fd5b50565b6000813590506144a881614482565b92915050565b600080604083850312156144c5576144c461414c565b5b60006144d38582860161416d565b92505060206144e485828601614499565b9150509250929050565b600060a0820190506145036000830188614118565b6145106020830187614118565b61451d6040830186614118565b61452a6060830185614458565b6145376080830184614458565b9695505050505050565b60008060006060848603121561455a5761455961414c565b5b6000614568868287016143f7565b9350506020614579868287016143f7565b925050604061458a8682870161416d565b9150509250925092565b6000602082840312156145aa576145a961414c565b5b60006145b8848285016143f7565b91505092915050565b60006060820190506145d66000830186614118565b6145e36020830185614118565b6145f06040830184614118565b949350505050565b6146018161420a565b82525050565b600060208201905061461c60008301846145f8565b92915050565b6000602082840312156146385761463761414c565b5b600061464684828501614499565b91505092915050565b60006080820190506146646000830187614118565b61467160208301866145f8565b61467e6040830185614118565b61468b6060830184614118565b95945050505050565b6000806000606084860312156146ad576146ac61414c565b5b60006146bb868287016143f7565b93505060206146cc8682870161416d565b92505060406146dd8682870161416d565b9150509250925092565b600060059050919050565b600081905092915050565b6000819050919050565b600061471383836141db565b60208301905092915050565b6000602082019050919050565b614735816146e7565b61473f81846146f2565b925061474a826146fd565b8060005b8381101561477b5781516147628782614707565b965061476d8361471f565b92505060018101905061474e565b505050505050565b600060a082019050614798600083018461472c565b92915050565b600081519050919050565b600082825260208201905092915050565b6000819050602082019050919050565b6080820160008201516147e060008501826141db565b5060208201516147f3602085018261421c565b50604082015161480660408501826141db565b50606082015161481960608501826141db565b50505050565b600061482b83836147ca565b60808301905092915050565b6000602082019050919050565b600061484f8261479e565b61485981856147a9565b9350614864836147ba565b8060005b8381101561489557815161487c888261481f565b975061488783614837565b925050600181019050614868565b5085935050505092915050565b600060208201905081810360008301526148bc8184614844565b905092915050565b600080604083850312156148db576148da61414c565b5b60006148e9858286016143f7565b92505060206148fa858286016143f7565b9150509250929050565b7f4e487b7100000000000000000000000000000000000000000000000000000000600052604160045260246000fd5b7f4e487b7100000000000000000000000000000000000000000000000000000000600052601160045260246000fd5b600061496d8261410e565b91506149788361410e565b92508282101561498b5761498a614933565b5b828203905092915050565b7f4e487b7100000000000000000000000000000000000000000000000000000000600052603260045260246000fd5b60006149d08261410e565b91507fffffffffffffffffffffffffffffffffffffffffffffffffffffffffffffffff821415614a0357614a02614933565b5b600182019050919050565b7f4e487b7100000000000000000000000000000000000000000000000000000000600052602260045260246000fd5b60006002820490506001821680614a5557607f821691505b60208210811415614a6957614a68614a0e565b5b50919050565b7f4f776e61626c653a2063616c6c6572206973206e6f7420746865206f776e6572600082015250565b6000614aa5602083614330565b9150614ab082614a6f565b602082019050919050565b60006020820190508181036000830152614ad481614a98565b9050919050565b7f43616e6e6f74204265207a65726f000000000000000000000000000000000000600082015250565b6000614b11600e83614330565b9150614b1c82614adb565b602082019050919050565b60006020820190508181036000830152614b4081614b04565b9050919050565b7f546f6b656e3a20596f752063616e6e6f74207370656e642074686174206d756360008201527f68206f6e2074686973206163636f756e74000000000000000000000000000000602082015250565b6000614ba3603183614330565b9150614bae82614b47565b604082019050919050565b60006020820190508181036000830152614bd281614b96565b9050919050565b7f43616e6e6f7420756e7374616b65205a65726f00000000000000000000000000600082015250565b6000614c0f601383614330565b9150614c1a82614bd9565b602082019050919050565b60006020820190508181036000830152614c3e81614c02565b9050919050565b600081519050919050565b600082825260208201905092915050565b6000819050602082019050919050565b6000614c7d838361421c565b60208301905092915050565b6000602082019050919050565b6000614ca182614c45565b614cab8185614c50565b9350614cb683614c61565b8060005b83811015614ce7578151614cce8882614c71565b9750614cd983614c89565b925050600181019050614cba565b5085935050505092915050565b6000604082019050614d096000830185614118565b8181036020830152614d1b8184614c96565b90509392505050565b600080fd5b614d3282614374565b810181811067ffffffffffffffff82111715614d5157614d50614904565b5b80604052505050565b6000614d64614142565b9050614d708282614d29565b919050565b600067ffffffffffffffff821115614d9057614d8f614904565b5b602082029050602081019050919050565b600080fd5b600081519050614db581614156565b92915050565b6000614dce614dc984614d75565b614d5a565b90508083825260208201905060208402830185811115614df157614df0614da1565b5b835b81811015614e1a5780614e068882614da6565b845260208401935050602081019050614df3565b5050509392505050565b600082601f830112614e3957614e38614d24565b5b8151614e49848260208601614dbb565b91505092915050565b600060208284031215614e6857614e6761414c565b5b600082015167ffffffffffffffff811115614e8657614e85614151565b5b614e9284828501614e24565b91505092915050565b6000614ea68261410e565b9150614eb18361410e565b9250827fffffffffffffffffffffffffffffffffffffffffffffffffffffffffffffffff03821115614ee657614ee5614933565b5b828201905092915050565b7f436c61696d696e672069732064697361626c6564000000000000000000000000600082015250565b6000614f27601483614330565b9150614f3282614ef1565b602082019050919050565b60006020820190508181036000830152614f5681614f1a565b9050919050565b7f496e73756666696369656e742042616c616e63652e2054727920616761696e2060008201527f6c61746572000000000000000000000000000000000000000000000000000000602082015250565b6000614fb9602583614330565b9150614fc482614f5d565b604082019050919050565b60006020820190508181036000830152614fe881614fac565b9050919050565b7f5374616b696e672069732064697361626c656400000000000000000000000000600082015250565b6000615025601383614330565b915061503082614fef565b602082019050919050565b6000602082019050818103600083015261505481615018565b9050919050565b7f43616e6e6f74207374616b65205a65726f000000000000000000000000000000600082015250565b6000615091601183614330565b915061509c8261505b565b602082019050919050565b600060208201905081810360008301526150c081615084565b9050919050565b7f43616e6e6f74207374616b65206d6f7265207468616e20796f75206f776e0000600082015250565b60006150fd601e83614330565b9150615108826150c7565b602082019050919050565b6000602082019050818103600083015261512c816150f0565b9050919050565b7f63616c6c6572206973206e6f7420746865205265776172646572000000000000600082015250565b6000615169601a83614330565b915061517482615133565b602082019050919050565b600060208201905081810360008301526151988161515c565b9050919050565b7f43616e6e6f7420636c61696d205a65726f000000000000000000000000000000600082015250565b60006151d5601183614330565b91506151e08261519f565b602082019050919050565b60006020820190508181036000830152615204816151c8565b9050919050565b7f457863656564696e672042616c616e6365000000000000000000000000000000600082015250565b6000615241601183614330565b915061524c8261520b565b602082019050919050565b6000602082019050818103600083015261527081615234565b9050919050565b600060408201905061528c6000830185614118565b6152996020830184614118565b9392505050565b7f4f776e61626c653a206e6577206f776e657220697320746865207a65726f206160008201527f6464726573730000000000000000000000000000000000000000000000000000602082015250565b60006152fc602683614330565b9150615307826152a0565b604082019050919050565b6000602082019050818103600083015261532b816152ef565b9050919050565b7f546f6b656e3a20617070726f76652063616e6e6f7420626520646f6e6520667260008201527f6f6d207a65726f20616464726573730000000000000000000000000000000000602082015250565b600061538e602f83614330565b915061539982615332565b604082019050919050565b600060208201905081810360008301526153bd81615381565b9050919050565b7f546f6b656e3a20617070726f76652063616e6e6f7420626520746f207a65726f60008201527f2061646472657373000000000000000000000000000000000000000000000000602082015250565b6000615420602883614330565b915061542b826153c4565b604082019050919050565b6000602082019050818103600083015261544f81615413565b9050919050565b60008160011c9050919050565b6000808291508390505b60018511156154ad5780860481111561548957615488614933565b5b60018516156154985780820291505b80810290506154a685615456565b945061546d565b94509492505050565b6000826154c65760019050615582565b816154d45760009050615582565b81600181146154ea57600281146154f457615523565b6001915050615582565b60ff84111561550657615505614933565b5b8360020a91508482111561551d5761551c614933565b5b50615582565b5060208310610133831016604e8410600b84101617156155585782820a90508381111561555357615552614933565b5b615582565b6155658484846001615463565b9250905081840481111561557c5761557b614933565b5b81810290505b9392505050565b60006155948261410e565b915061559f8361410e565b92506155cc7fffffffffffffffffffffffffffffffffffffffffffffffffffffffffffffffff84846154b6565b905092915050565b60006155df8261410e565b91506155ea8361410e565b9250817fffffffffffffffffffffffffffffffffffffffffffffffffffffffffffffffff048311821515161561562357615622614933565b5b828202905092915050565b7f546f6b656e3a207472616e736665722066726f6d207a65726f2061646472657360008201527f7300000000000000000000000000000000000000000000000000000000000000602082015250565b600061568a602183614330565b91506156958261562e565b604082019050919050565b600060208201905081810360008301526156b98161567d565b9050919050565b7f546f6b656e3a207472616e7366657220746f207a65726f206164647265737300600082015250565b60006156f6601f83614330565b9150615701826156c0565b602082019050919050565b60006020820190508181036000830152615725816156e9565b9050919050565b7f546f6b656e3a2063616e2774207472616e73666572206d6f7265207468616e2060008201527f746865206163636f756e7420686f6c6473000000000000000000000000000000602082015250565b6000615788603183614330565b91506157938261572c565b604082019050919050565b600060208201905081810360008301526157b78161577b565b9050919050565b7f43616e6e6f7420756e7374616b65206d6f7265207468616e20796f757220616d60008201527f7400000000000000000000000000000000000000000000000000000000000000602082015250565b600061581a602183614330565b9150615825826157be565b604082019050919050565b600060208201905081810360008301526158498161580d565b9050919050565b60006080820190506158656000830187614118565b6158726020830186614118565b61587f6040830185614118565b61588c6060830184614118565b95945050505050565b7f43616e6e6f7420636c61696d206966206e6f207374616b650000000000000000600082015250565b60006158cb601883614330565b91506158d682615895565b602082019050919050565b600060208201905081810360008301526158fa816158be565b9050919050565b7f4e487b7100000000000000000000000000000000000000000000000000000000600052601260045260246000fd5b600061593b8261410e565b91506159468361410e565b92508261595657615955615901565b5b828204905092915050565b7f43616e6e6f74206d696e7420746f207a65726f20616464726573730000000000600082015250565b6000615997601b83614330565b91506159a282615961565b602082019050919050565b600060208201905081810360008301526159c68161598a565b9050919050565b7f546f6b656e3a2063616e6e6f74206275726e2066726f6d207a65726f2061646460008201527f7265737300000000000000000000000000000000000000000000000000000000602082015250565b6000615a29602483614330565b9150615a34826159cd565b604082019050919050565b60006020820190508181036000830152615a5881615a1c565b9050919050565b7f546f6b656e3a2043616e6e6f74206275726e206d6f7265207468616e2074686560008201527f206163636f756e74206f776e7300000000000000000000000000000000000000602082015250565b6000615abb602d83614330565b9150615ac682615a5f565b604082019050919050565b60006020820190508181036000830152615aea81615aae565b9050919050565b7f43616e6e6f74207374616b65206e6f7468696e67000000000000000000000000600082015250565b6000615b27601483614330565b9150615b3282615af1565b602082019050919050565b60006020820190508181036000830152615b5681615b1a565b905091905056fea26469706673582212207aa078290bcb160f0d3276b4496387562d2218edb5c2795ff86f05143ecbd7bc64736f6c634300080a0033",
  "immutableReferences": {},
  "source": "// SPDX-License-Identifier: MIT\r\npragma solidity >=0.8.5 <0.9.0;\r\n\r\nimport \"@openzeppelin/contracts/access/Ownable.sol\";\r\nimport \"@openzeppelin/contracts/utils/math/SafeMath.sol\";\r\nimport \"@openzeppelin/contracts/utils/Strings.sol\";\r\nimport \"./ITokenSale.sol\";\r\nimport \"./Staking.sol\";\r\nimport \"./IPancakeRouter02.sol\";\r\n\r\n\r\ncontract Token is Ownable, Staking {\r\n\r\n    using SafeMath for uint256;\r\n    uint private _totalSupply;\r\n    uint256 private _decimals;\r\n    string private _symbol;\r\n    string private _name;\r\n    uint private  _taxFee = 5;\r\n    uint private  burnFee = 5;\r\n    uint private _tokenRate = 1000000;\r\n    ITokenSale private _tokenSale;\r\n    uint256 private _curSale = 1;\r\n    uint256 private _minStakeDur = 0;\r\n   \r\n\r\n   // Mainnet\r\n    address private constant PANCAKE_FACTORY = 0xcA143Ce32Fe78f1f7019d7d551a6402fC5350c73;  \r\n    address private constant PANCAKE_ROUTER = 0x10ED43C718714eb63d5aA57B78B54704E256024E;\r\n    address private constant WBNB = 0xbb4CdB9CBd36B01bD1cBaEBF2De08d9173bc095c;\r\n    address private constant BUSD = 0xe9e7CEA3DedcA5984780Bafc599bD69ADd087D56;\r\n\r\n    address private constant DEPLOYER = 0xf09634cB0Df7eccfAe04dBf457069FD5eF9e9fE1;\r\n    address private constant STAKELOCK = 0xA9E4fa7a2C0eA3f48b1b63B84eEeE9945ab23167; //will hold staking only zero sum\r\n    address private constant REWARDER = 0x48FF4fF2dD19306C06D21dafcF747578805075Db; //will hold refrwd  and send rwd\r\n    address private constant FEEADDR = 0xf94D878f9491894eFC06C76fD62a35985f0c28BC; //will hold refrwd  and send rwd\r\n    address private constant STAKERWD = 0x5206D8be5993fC07AbA3F569Ded43c52B58bd11F; // Will pay stake rewards\r\n\r\n    // ///Testnet\r\n    // address private constant PANCAKE_FACTORY = 0x6725F303b657a9451d8BA641348b6761A6CC7a17;  \r\n    // address private constant PANCAKE_ROUTER = 0xD99D1c33F9fC3444f8101754aBC46c52416550D1 ;\r\n    // address private constant WBNB = 0xae13d989daC2f0dEbFf460aC112a837C89BAa7cd;\r\n    // address private constant BUSD = 0x8301F2213c0eeD49a7E28Ae4c3e91722919B8B47;\r\n\r\n    // address private constant DEPLOYER = 0x3BbDC27116FBA9546Cd826C721D1952B2d9f0d8E;\r\n    // address private constant STAKELOCK = 0xbaBCE06552fac3ad8e44311e3e7C162f89eC27c0; //will hold staking only zero sum\r\n    // address private constant REWARDER = 0x3d5fFDf997096c8aF1cB2BA3C03207BA45C423Fa; //will hold refrwd  and send rwd\r\n    // address private constant FEEADDR = 0xdE448d5582310a5e7bAd427D237c3FD7F7712749; //will hold refrwd  and send rwd\r\n    // address private constant STAKERWD = 0xa356e0fb5e7aCCa746fEA4CFfB0dd4FD0F0E86c4; // Will pay stake rewards\r\n\r\n    //Public Stats\r\n    uint256 public totStaked = 0;\r\n    uint256 public totClaimed = 0;\r\n    uint256 public totUnstaked = 0;\r\n    uint256 public totRefpaid = 0;\r\n    bool public stkDisabled = false;\r\n    bool public clmDisabled = false;\r\n    // uint256 public totStkAccts = 0;\r\n    uint256 public totFees = 0;\r\n\r\n\r\n    struct StakedCol {\r\n      uint bno;\r\n      address addr;\r\n      uint amt;\r\n      uint ts;\r\n    }\r\n    struct UnStakedCol {\r\n      uint bno;\r\n      address addr;\r\n      uint amt;\r\n      uint ts;\r\n    }\r\n    StakedCol[] public stkCol;\r\n    UnStakedCol[] public utkCol;\r\n\r\n\r\n\r\n\r\n\r\n \r\n\r\n\r\n  /**\r\n  * @notice _balances is a mapping that contains a address as KEY \r\n  * and the balance of the address as the value\r\n  */\r\n  mapping (address => uint256) private _balances;\r\n  /**\r\n  * @notice _allowances is used to manage and control allownace\r\n  * An allowance is the right to use another accounts balance, or part of it\r\n   */\r\n   mapping (address => mapping (address => uint256)) private _allowances;\r\n\r\n  /**\r\n  * @notice Events are created below.\r\n  * Transfer event is a event that notify the blockchain that a transfer of assets has taken place\r\n  *\r\n  */\r\n  event Transfer(address indexed from, address indexed to, uint256 value);\r\n  /**\r\n   * @notice Approval is emitted when a new Spender is approved to spend Tokens on\r\n   * the Owners account\r\n   */\r\n  event Approval(address indexed owner, address indexed spender, uint256 value);\r\n\r\n  /**\r\n   * @notice Purchased is emitted when the message sender swaps native token for the contract token to\r\n   * the senders account\r\n   */\r\n\r\n  event Purchased(address indexed owner, uint256 bnbamt, uint256 tokenamt);\r\n\r\n\r\n  event RefClaimed(address indexed owner, uint256 value, uint256 fee);\r\n\r\n\r\n\r\n  /**\r\n  * @notice constructor will be triggered when we create the Smart contract\r\n  * _name = name of the token\r\n  * _short_symbol = Short Symbol name for the token\r\n  * token_decimals = The decimal precision of the Token, defaults 18\r\n  * _totalSupply is how much Tokens there are totally \r\n  */\r\n  constructor(string memory token_name, string memory short_symbol, uint256 token_decimals, uint256 token_totalSupply, uint256 minStakeDur) payable {\r\n      _name = token_name;\r\n      _symbol = short_symbol;\r\n      _decimals = token_decimals;\r\n     /// _totalSupply = Tokefy(token_totalSupply);\r\n      _mint(msg.sender, Tokefy(token_totalSupply));       \r\n      _minStakeDur = minStakeDur;\r\n      emit Transfer(address(0), msg.sender, _totalSupply);\r\n\r\n  }\r\n\r\n\r\n   // fallback function to rcv bnb\r\n    fallback() external payable  {\r\n     // Purchase();\r\n     _tokenSale.purchase(_curSale);\r\n    } \r\n    receive() external payable  {\r\n     // Purchase();\r\n     _tokenSale.purchase(_curSale);\r\n    }\r\n\r\n  function setDefaultSale(uint256 no) external onlyOwner {\r\n    _curSale = no;\r\n  }\r\n\r\n  function initSale(address tokenSaleAddress) external onlyOwner { \r\n    _tokenSale = ITokenSale(tokenSaleAddress);\r\n  }\r\n\r\n  function getTokenAmt(uint256 amt) external view returns (uint256) {\r\n\r\n       address[] memory path = new address[](2);\r\n       path[0] = WBNB;\r\n       path[1] = BUSD;   \r\n\r\n       IPancakeRouter02 pancakeRouterz = IPancakeRouter02(PANCAKE_ROUTER);\r\n       uint256[] memory amountOutMins = pancakeRouterz.getAmountsOut(amt, path);\r\n\r\n        return amountOutMins[path.length -1];  \r\n  }\r\n\r\n  modifier onlyRewarder() {\r\n    require(msg.sender == REWARDER, \"caller is not the Rewarder\");\r\n    _;\r\n  }\r\n\r\n  function Tokefy(uint256 value) internal view returns (uint256) {\r\n     return value * (10 ** _decimals);\r\n  }\r\n\r\n  function Natify(uint256 value) internal view returns (uint256) {\r\n     return value / (10 ** _decimals);\r\n  }\r\n  // need to normify ETH amts before interacting with the contract\r\n  function Normify(uint256 value) internal view returns (uint256) {\r\n     return value / (10 ** (18-_decimals));\r\n  }\r\n  /**\r\n  * @notice decimals will return the number of decimal precision the Token is deployed with\r\n  */\r\n  function decimals() external view returns (uint256) {\r\n    return _decimals;\r\n  }\r\n  /**\r\n  * @notice symbol will return the Token's symbol \r\n  */\r\n  function symbol() external view returns (string memory){\r\n    return _symbol;\r\n  }\r\n  /**\r\n  * @notice name will return the Token's symbol \r\n  */\r\n  function name() external view returns (string memory){\r\n    return _name;\r\n  }\r\n  /**\r\n  * @notice totalSupply will return the tokens total supply of tokens\r\n  */\r\n  function totalSupply() external view returns (uint256){\r\n    return _totalSupply;\r\n  }\r\n  /**\r\n  * @notice balanceOf will return the account balance for the given account\r\n  */\r\n  function balanceOf(address account) external view returns (uint256) {\r\n    return _balances[account];\r\n  }\r\n    /**\r\n  * @notice IsClmDisabled return true if claiming is disabled (For migration purposes)\r\n  */\r\n  function IsClmDisabled() external view returns (bool) {\r\n    return clmDisabled;\r\n  }\r\n\r\n\r\n  function setTokenRate(uint256 rate) public onlyOwner {\r\n      _tokenRate = rate;\r\n  }\r\n\r\n\r\n\r\n  /**\r\n  * @notice _mint will create tokens on the address inputted and then increase the total supply\r\n  *\r\n  * It will also emit an Transfer event, with sender set to zero address (adress(0))\r\n  * \r\n  * Requires that the address that is recieveing the tokens is not zero address\r\n  */\r\n  function _mint(address account, uint256 amount) internal {\r\n    require(account != address(0), \"Cannot mint to zero address\");\r\n    // Increase total supply\r\n    _totalSupply = _totalSupply + (amount);\r\n    // Add amount to the account balance using the balance mapping\r\n    _balances[account] = _balances[account] + amount;\r\n    // Emit our event to log the action\r\n    emit Transfer(address(0), account, amount);\r\n  }\r\n  /**\r\n  * @notice _burn will destroy tokens from an address inputted and then decrease total supply\r\n  * An Transfer event will emit with receiever set to zero address\r\n  * \r\n  * Requires \r\n  * - Account cannot be zero\r\n  * - Account balance has to be bigger or equal to amount\r\n  */\r\n  function _burn(address account, uint256 amount) internal {\r\n    require(account != address(0), \"Token: cannot burn from zero address\");\r\n    require(_balances[account] >= amount, \"Token: Cannot burn more than the account owns\");\r\n\r\n    // Remove the amount from the account balance\r\n    _balances[account] = _balances[account] - amount;\r\n    // Decrease totalSupply\r\n    _totalSupply = _totalSupply - amount;\r\n    // Emit event, use zero address as reciever\r\n    emit Transfer(account, address(0), amount);\r\n  }\r\n  /**\r\n  * @notice burn is used to destroy tokens on an address\r\n  * \r\n  * See {_burn}\r\n  * Requires\r\n  *   - msg.sender must be the token owner\r\n  *\r\n   */\r\n  function burn(uint256 amount) public returns(bool) {\r\n    _burn(msg.sender, Tokefy(amount));\r\n    return true;\r\n  }\r\n\r\n    /**\r\n  * @notice mint is used to create tokens and assign them to msg.sender\r\n  * \r\n  * See {_mint}\r\n  * Requires\r\n  *   - msg.sender must be the token owner\r\n  *\r\n   */\r\n  function mint(address account, uint256 amount) public onlyOwner returns(bool){\r\n    _mint(account, Tokefy(amount));\r\n    return true;\r\n  }\r\n\r\n  /**\r\n  * @notice transfer is used to transfer funds from the sender to the recipient\r\n  * This function is only callable from outside the contract. For internal usage see \r\n  * _transfer\r\n  *\r\n  * Requires\r\n  * - Caller cannot be zero\r\n  * - Caller must have a balance = or bigger than amount\r\n  *\r\n   */\r\n  function transfer(address recipient, uint256 amount) external returns (bool) {\r\n    _transfer(msg.sender, recipient, amount);\r\n    return true;\r\n  }\r\n\r\n  \r\n  /**\r\n  * @notice _transfer is used for internal transfers\r\n  * \r\n  * Events\r\n  * - Transfer\r\n  * \r\n  * Requires\r\n  *  - Sender cannot be zero\r\n  *  - recipient cannot be zero \r\n  *  - sender balance most be = or bigger than amount\r\n   */\r\n  function _transfer(address sender, address recipient, uint256 amount) internal {\r\n    require(sender != address(0), \"Token: transfer from zero address\");\r\n    require(recipient != address(0), \"Token: transfer to zero address\");\r\n    //string memory err = string(abi.encodePacked(\"Token: cant transfer more than your account holds \", Strings.toString(amount), \" \", Strings.toString(_balances[sender])));\r\n    require(_balances[sender] >= amount, \"Token: can't transfer more than the account holds\");\r\n\r\n    _balances[sender] = _balances[sender] - amount;\r\n    _balances[recipient] = _balances[recipient] + amount;\r\n\r\n    emit Transfer(sender, recipient, amount);\r\n  }\r\n  /**\r\n  * @notice getOwner just calls Ownables owner function. \r\n  * returns owner of the token\r\n  * \r\n   */\r\n  function getOwner() external view returns (address) {\r\n    return owner();\r\n  }\r\n  /**\r\n  * @notice allowance is used view how much allowance an spender has\r\n   */\r\n   function allowance(address owner, address spender) external view returns(uint256){\r\n     return _allowances[owner][spender];\r\n   }\r\n  /**\r\n  * @notice approve will use the senders address and allow the spender to use X amount of tokens on his behalf\r\n  */\r\n   function approve(address spender, uint256 amount) external returns (bool) {\r\n     _approve(msg.sender, spender, amount);\r\n     return true;\r\n   }\r\n\r\n   /**\r\n   * @notice _approve is used to add a new Spender to a Owners account\r\n   * \r\n   * Events\r\n   *   - {Approval}\r\n   * \r\n   * Requires\r\n   *   - owner and spender cannot be zero address\r\n    */\r\n    function _approve(address owner, address spender, uint256 amount) internal {\r\n      require(owner != address(0), \"Token: approve cannot be done from zero address\");\r\n      require(spender != address(0), \"Token: approve cannot be to zero address\");\r\n      // Set the allowance of the spender address at the Owner mapping over accounts to the amount\r\n      _allowances[owner][spender] = amount;\r\n\r\n      emit Approval(owner,spender,amount);\r\n    }\r\n    /**\r\n    * @notice transferFrom is uesd to transfer Tokens from a Accounts allowance\r\n    * Spender address should be the token holder\r\n    *\r\n    * Requires\r\n    *   - The caller must have a allowance = or bigger than the amount spending\r\n     */\r\n\r\n\r\n    function transferFrom(address spender, address recipient, uint256 amount) external returns(bool){\r\n      // Make sure spender is allowed the amount \r\n\r\n      require(_allowances[spender][msg.sender] >= amount, \"Token: You cannot spend that much on this account\");\r\n      // Transfer first\r\n      _transfer(spender, recipient, amount);\r\n      // Reduce current allowance so a user cannot respend\r\n      _approve(spender, msg.sender, _allowances[spender][msg.sender] - amount);\r\n      return true;\r\n    }\r\n    /**\r\n    * @notice increaseAllowance\r\n    * Adds allowance to a account from the function caller address\r\n    */\r\n    function increaseAllowance(address spender, uint256 amount) public returns (bool) {\r\n      amount = Tokefy(amount);\r\n      _approve(msg.sender, spender, _allowances[msg.sender][spender]+amount);\r\n      return true;\r\n    }\r\n  /**\r\n  * @notice decreaseAllowance\r\n  * Decrease the allowance on the account inputted from the caller address\r\n   */\r\n    function decreaseAllowance(address spender, uint256 amount) public returns (bool) {\r\n      amount = Tokefy(amount);\r\n      _approve(msg.sender, spender, _allowances[msg.sender][spender]-amount);\r\n      return true;\r\n    }\r\n\r\n\r\n    /**\r\n    * Add functionality like burn to the _stake afunction\r\n    *\r\n     */\r\n    function stake(uint256 amount) public {\r\n      // Make sure staker actually is good for it\r\n      require(!stkDisabled, \"Staking is disabled\");\r\n      require(amount > 0, \"Cannot stake Zero\");\r\n      amount = Tokefy(amount);\r\n      require(amount <= _balances[msg.sender], \"Cannot stake more than you own\");\r\n      _stake(amount, _minStakeDur);\r\n      // Burn the amount of tokens on the sender\r\n      //_burn(msg.sender, amount);\r\n      _transfer(msg.sender, STAKELOCK, amount);\r\n      totStaked += amount;\r\n      stkCol.push(StakedCol (block.number, msg.sender, amount, block.timestamp));\r\n    }\r\n\r\n\r\n    /**\r\n    * @notice unstake is used to withdraw stakes from the account holder\r\n     */\r\n    function claim()  public {\r\n      require(!clmDisabled, \"Claiming is disabled\");\r\n      uint256 amount = _claim();\r\n      require(_balances[STAKERWD] >= amount, \"Insufficient Balance. Try again later\");\r\n      // Return staked tokens to user\r\n     // _mint(msg.sender, amount);\r\n      totClaimed += amount;\r\n      _transfer(STAKERWD, msg.sender, amount);\r\n    }\r\n\r\n\r\n    /**\r\n    * @notice unstake is used to withdraw stakes from the account holder\r\n     */\r\n    function unstake(uint256 amount)  public {\r\n      require(amount > 0, \"Cannot unstake Zero\");\r\n      amount = Tokefy(amount);\r\n      \r\n      (uint256 amount_to_utk, uint256 avgtime) = _unstake(amount);    \r\n      uint256 time = block.timestamp;\r\n      uint256 diff = time - avgtime;   \r\n        \r\n      if(diff > _minStakeDur){ //no fee\r\n        _transfer(STAKELOCK, msg.sender, amount_to_utk);  \r\n      }else{\r\n        uint256 fee_payable = amount_to_utk.mul(_taxFee).div(100);\r\n        uint256 amt_payable = amount_to_utk-fee_payable;\r\n        _transfer(STAKELOCK, msg.sender, amt_payable);\r\n        _transfer(STAKELOCK, FEEADDR, fee_payable);    \r\n      }\r\n      totStaked = amount>totStaked? 0: totStaked-amount;\r\n      utkCol.push(UnStakedCol(block.number, msg.sender, amount_to_utk, block.timestamp));\r\n    }\r\n\r\n    /**\r\n    * @notice stakeAmt is used to withdraw stakes from the account holder\r\n     */\r\n    function getStake(address addr)  public view returns (uint256,uint256,uint256) {\r\n      return _getStake(addr);\r\n    }\r\n\r\n    /**\r\n    * @notice claimref is used for the user to claim referral commission\r\n    */\r\n    function claimref(address addr, uint256 amount, uint256 fee) public onlyRewarder returns (uint256) {\r\n      require(amount > 0, \"Cannot claim Zero\");\r\n      uint256 total = amount + fee;  \r\n      require(_balances[REWARDER] >= total, \"Exceeding Balance\");  \r\n      // Allow user to withdraw claim rewards\r\n      _transfer(REWARDER, addr, amount);\r\n      _transfer(REWARDER, FEEADDR, fee);\r\n      emit RefClaimed(addr,amount, fee);\r\n      totFees += fee;\r\n      totRefpaid += amount;\r\n      return amount;\r\n\r\n    }\r\n\r\n\r\n    function getSpclBal() public onlyOwner view returns (uint256,uint256, uint256, bool, bool) {\r\n       return (_balances[STAKERWD], _balances[REWARDER],  _balances[FEEADDR], stkDisabled, clmDisabled);\r\n    }\r\n\r\n    function stakerAdj(uint256 amount, bool isAdd) public onlyOwner returns (uint256) {\r\n      require(amount > 0, \"Cannot Be zero\");\r\n         amount = Tokefy(amount);\r\n      if(isAdd){\r\n         _transfer(owner(), STAKERWD, amount);     \r\n      }else{\r\n         _transfer(STAKERWD, owner(),  amount);\r\n      }\r\n      return _balances[STAKERWD];\r\n    }\r\n\r\n    \r\n    function rewarderAdj(uint256 amount, bool isAdd) public onlyOwner returns (uint256) {\r\n      require(amount > 0, \"Cannot Be zero\");\r\n         amount = Tokefy(amount);\r\n      if(isAdd){\r\n         _transfer(owner(), REWARDER, amount);     \r\n      }else{\r\n         _transfer(REWARDER, owner(),  amount);\r\n      }\r\n      return _balances[REWARDER];\r\n    }\r\n\r\n\r\n    function getStkCol(uint256 max) external view returns (StakedCol[] memory){\r\n\r\n        StakedCol[] memory info = new StakedCol[](max); \r\n        if(stkCol.length<1) return info;\r\n        uint stkColLen = stkCol.length-1;\r\n\r\n        for (uint i = 0; i< max; i++){\r\n            StakedCol memory stk = stkCol[stkColLen-i];\r\n            info[i] = stk;\r\n            if(stkColLen==i) break;\r\n\r\n        }\r\n        return info;\r\n    }\r\n\r\n    function getUtkCol(uint256 max) external view returns (UnStakedCol[] memory){\r\n\r\n        UnStakedCol[] memory info = new UnStakedCol[](max); \r\n        if(utkCol.length<1) return info;\r\n        uint utkColLen = utkCol.length-1;\r\n\r\n        for (uint i = 0; i< max; i++){\r\n            UnStakedCol memory utk = utkCol[utkColLen-i];\r\n            info[i] = utk;\r\n            if(utkColLen==i) break;\r\n\r\n        }\r\n        return info;\r\n    }\r\n\r\n\r\n\r\n    function getStats() external view returns(uint256[5] memory){\r\n      uint256[5] memory stats;\r\n      stats[0] =totStaked;\r\n      stats[1] =totClaimed;\r\n      stats[2] =totUnstaked;\r\n      stats[3] =totRefpaid;\r\n      stats[4] =totFees;\r\n\r\n      return stats;\r\n\r\n    }\r\n\r\n    function stkStatus(bool action) public onlyOwner {\r\n      stkDisabled = action;\r\n    }\r\n\r\n    function clmStatus(bool action) public onlyOwner {\r\n      clmDisabled = action;\r\n    }\r\n\r\n\r\n\r\n    \r\n\r\n\r\n}\r\n\r\n",
  "sourcePath": "C:\\Users\\user\\Desktop\\token\\contracts\\Token.sol",
  "compiler": {
    "name": "solc",
    "version": "0.8.10+commit.fc410830.Emscripten.clang"
  },
  "schemaVersion": "3.4.3",
  "updatedAt": "2022-03-01T03:19:23.280Z",
  "networkType": "ethereum",
  "devdoc": {
    "kind": "dev",
    "methods": {
      "owner()": {
        "details": "Returns the address of the current owner."
      },
      "renounceOwnership()": {
        "details": "Leaves the contract without owner. It will not be possible to call `onlyOwner` functions anymore. Can only be called by the current owner. NOTE: Renouncing ownership will leave the contract without an owner, thereby removing any functionality that is only available to the owner."
      },
      "transferOwnership(address)": {
        "details": "Transfers ownership of the contract to a new account (`newOwner`). Can only be called by the current owner."
      }
    },
    "version": 1
  },
  "userdoc": {
    "events": {
      "Approval(address,address,uint256)": {
        "notice": "Approval is emitted when a new Spender is approved to spend Tokens on the Owners account"
      },
      "Purchased(address,uint256,uint256)": {
        "notice": "Purchased is emitted when the message sender swaps native token for the contract token to the senders account"
      },
      "Transfer(address,address,uint256)": {
        "notice": "Events are created below. Transfer event is a event that notify the blockchain that a transfer of assets has taken place"
      }
    },
    "kind": "user",
    "methods": {
      "IsClmDisabled()": {
        "notice": "IsClmDisabled return true if claiming is disabled (For migration purposes)"
      },
      "allowance(address,address)": {
        "notice": "allowance is used view how much allowance an spender has"
      },
      "approve(address,uint256)": {
        "notice": "approve will use the senders address and allow the spender to use X amount of tokens on his behalf"
      },
      "balanceOf(address)": {
        "notice": "balanceOf will return the account balance for the given account"
      },
      "burn(uint256)": {
        "notice": "burn is used to destroy tokens on an address  See {_burn} Requires   - msg.sender must be the token owner"
      },
      "claim()": {
        "notice": "unstake is used to withdraw stakes from the account holder"
      },
      "claimref(address,uint256,uint256)": {
        "notice": "claimref is used for the user to claim referral commission"
      },
      "constructor": {
        "notice": "constructor will be triggered when we create the Smart contract _name = name of the token _short_symbol = Short Symbol name for the token token_decimals = The decimal precision of the Token, defaults 18 _totalSupply is how much Tokens there are totally "
      },
      "decimals()": {
        "notice": "decimals will return the number of decimal precision the Token is deployed with"
      },
      "decreaseAllowance(address,uint256)": {
        "notice": "decreaseAllowance Decrease the allowance on the account inputted from the caller address"
      },
      "getOwner()": {
        "notice": "getOwner just calls Ownables owner function.  returns owner of the token "
      },
      "getStake(address)": {
        "notice": "stakeAmt is used to withdraw stakes from the account holder"
      },
      "increaseAllowance(address,uint256)": {
        "notice": "increaseAllowance Adds allowance to a account from the function caller address"
      },
      "mint(address,uint256)": {
        "notice": "mint is used to create tokens and assign them to msg.sender  See {_mint} Requires   - msg.sender must be the token owner"
      },
      "name()": {
        "notice": "name will return the Token's symbol "
      },
      "stake(uint256)": {
        "notice": "Add functionality like burn to the _stake afunction"
      },
      "symbol()": {
        "notice": "symbol will return the Token's symbol "
      },
      "totalSupply()": {
        "notice": "totalSupply will return the tokens total supply of tokens"
      },
      "transfer(address,uint256)": {
        "notice": "transfer is used to transfer funds from the sender to the recipient This function is only callable from outside the contract. For internal usage see  _transfer Requires - Caller cannot be zero - Caller must have a balance = or bigger than amount"
      },
      "transferFrom(address,address,uint256)": {
        "notice": "transferFrom is uesd to transfer Tokens from a Accounts allowance Spender address should be the token holder Requires   - The caller must have a allowance = or bigger than the amount spending"
      },
      "unstake(uint256)": {
        "notice": "unstake is used to withdraw stakes from the account holder"
      }
    },
    "version": 1
  }
}