{
  "contractName": "IdoSale1",
  "abi": [
    {
      "inputs": [
        {
          "internalType": "address",
          "name": "_tokenAddress",
          "type": "address"
        },
        {
          "internalType": "bool",
          "name": "_hasWhitelisting",
          "type": "bool"
        }
      ],
      "stateMutability": "nonpayable",
      "type": "constructor"
    },
    {
      "anonymous": false,
      "inputs": [
        {
          "indexed": true,
          "internalType": "address[]",
          "name": "accounts",
          "type": "address[]"
        }
      ],
      "name": "AddedToWhitelist",
      "type": "event"
    },
    {
      "anonymous": false,
      "inputs": [
        {
          "indexed": true,
          "internalType": "address",
          "name": "previousOwner",
          "type": "address"
        },
        {
          "indexed": true,
          "internalType": "address",
          "name": "newOwner",
          "type": "address"
        }
      ],
      "name": "OwnershipTransferred",
      "type": "event"
    },
    {
      "anonymous": false,
      "inputs": [
        {
          "indexed": false,
          "internalType": "address",
          "name": "account",
          "type": "address"
        }
      ],
      "name": "Paused",
      "type": "event"
    },
    {
      "anonymous": false,
      "inputs": [
        {
          "indexed": true,
          "internalType": "address",
          "name": "account",
          "type": "address"
        }
      ],
      "name": "RemovedFromWhitelist",
      "type": "event"
    },
    {
      "anonymous": false,
      "inputs": [
        {
          "indexed": false,
          "internalType": "address",
          "name": "account",
          "type": "address"
        }
      ],
      "name": "Unpaused",
      "type": "event"
    },
    {
      "inputs": [
        {
          "internalType": "address[]",
          "name": "_addresses",
          "type": "address[]"
        }
      ],
      "name": "add",
      "outputs": [],
      "stateMutability": "nonpayable",
      "type": "function"
    },
    {
      "inputs": [],
      "name": "decimals",
      "outputs": [
        {
          "internalType": "uint256",
          "name": "",
          "type": "uint256"
        }
      ],
      "stateMutability": "view",
      "type": "function"
    },
    {
      "inputs": [],
      "name": "erc20",
      "outputs": [
        {
          "internalType": "contract ERC20",
          "name": "",
          "type": "address"
        }
      ],
      "stateMutability": "view",
      "type": "function"
    },
    {
      "inputs": [],
      "name": "getWhitelistedAddresses",
      "outputs": [
        {
          "internalType": "address[]",
          "name": "",
          "type": "address[]"
        }
      ],
      "stateMutability": "view",
      "type": "function"
    },
    {
      "inputs": [],
      "name": "hasWhitelisting",
      "outputs": [
        {
          "internalType": "bool",
          "name": "",
          "type": "bool"
        }
      ],
      "stateMutability": "view",
      "type": "function"
    },
    {
      "inputs": [
        {
          "internalType": "address",
          "name": "_address",
          "type": "address"
        }
      ],
      "name": "isWhitelisted",
      "outputs": [
        {
          "internalType": "bool",
          "name": "",
          "type": "bool"
        }
      ],
      "stateMutability": "view",
      "type": "function"
    },
    {
      "inputs": [],
      "name": "owner",
      "outputs": [
        {
          "internalType": "address",
          "name": "",
          "type": "address"
        }
      ],
      "stateMutability": "view",
      "type": "function"
    },
    {
      "inputs": [],
      "name": "paused",
      "outputs": [
        {
          "internalType": "bool",
          "name": "",
          "type": "bool"
        }
      ],
      "stateMutability": "view",
      "type": "function"
    },
    {
      "inputs": [
        {
          "internalType": "address",
          "name": "_address",
          "type": "address"
        },
        {
          "internalType": "uint256",
          "name": "_index",
          "type": "uint256"
        }
      ],
      "name": "remove",
      "outputs": [],
      "stateMutability": "nonpayable",
      "type": "function"
    },
    {
      "inputs": [],
      "name": "renounceOwnership",
      "outputs": [],
      "stateMutability": "nonpayable",
      "type": "function"
    },
    {
      "inputs": [
        {
          "internalType": "address",
          "name": "newOwner",
          "type": "address"
        }
      ],
      "name": "transferOwnership",
      "outputs": [],
      "stateMutability": "nonpayable",
      "type": "function"
    },
    {
      "inputs": [
        {
          "internalType": "address",
          "name": "",
          "type": "address"
        }
      ],
      "name": "whitelist",
      "outputs": [
        {
          "internalType": "bool",
          "name": "",
          "type": "bool"
        }
      ],
      "stateMutability": "view",
      "type": "function"
    },
    {
      "inputs": [
        {
          "internalType": "uint256",
          "name": "",
          "type": "uint256"
        }
      ],
      "name": "whitelistedAddresses",
      "outputs": [
        {
          "internalType": "address",
          "name": "",
          "type": "address"
        }
      ],
      "stateMutability": "view",
      "type": "function"
    }
  ],
  "bytecode": "0x60806040526000600360006101000a81548160ff021916908315150217905550600060045560006006553480156200003657600080fd5b50604051620015cb380380620015cb83398181016040528101906200005c91906200030c565b8060008060006101000a81548160ff021916908315150217905550620000976200008b6200019860201b60201c565b620001a060201b60201c565b80600360006101000a81548160ff0219169083151502179055505081600560006101000a81548173ffffffffffffffffffffffffffffffffffffffff021916908373ffffffffffffffffffffffffffffffffffffffff160217905550600560009054906101000a900473ffffffffffffffffffffffffffffffffffffffff1673ffffffffffffffffffffffffffffffffffffffff1663313ce5676040518163ffffffff1660e01b8152600401602060405180830381865afa15801562000161573d6000803e3d6000fd5b505050506040513d601f19601f8201168201806040525081019062000187919062000391565b60ff166006819055505050620003c3565b600033905090565b60008060019054906101000a900473ffffffffffffffffffffffffffffffffffffffff16905081600060016101000a81548173ffffffffffffffffffffffffffffffffffffffff021916908373ffffffffffffffffffffffffffffffffffffffff1602179055508173ffffffffffffffffffffffffffffffffffffffff168173ffffffffffffffffffffffffffffffffffffffff167f8be0079c531659141344cd1fd0a4f28419497f9722a3daafe3b4186f6b6457e060405160405180910390a35050565b600080fd5b600073ffffffffffffffffffffffffffffffffffffffff82169050919050565b600062000297826200026a565b9050919050565b620002a9816200028a565b8114620002b557600080fd5b50565b600081519050620002c9816200029e565b92915050565b60008115159050919050565b620002e681620002cf565b8114620002f257600080fd5b50565b6000815190506200030681620002db565b92915050565b6000806040838503121562000326576200032562000265565b5b60006200033685828601620002b8565b92505060206200034985828601620002f5565b9150509250929050565b600060ff82169050919050565b6200036b8162000353565b81146200037757600080fd5b50565b6000815190506200038b8162000360565b92915050565b600060208284031215620003aa57620003a962000265565b5b6000620003ba848285016200037a565b91505092915050565b6111f880620003d36000396000f3fe608060405234801561001057600080fd5b50600436106100cf5760003560e01c8063785e9e861161008c578063abe7f1ab11610066578063abe7f1ab146101f2578063ba4e5c491461020e578063c4c1c94f1461023e578063f2fde38b1461025a576100cf565b8063785e9e86146101865780638da5cb5b146101a45780639b19251a146101c2576100cf565b806307662345146100d4578063313ce567146100f25780633af32abf146101105780635c975abb146101405780636d0280271461015e578063715018a61461017c575b600080fd5b6100dc610276565b6040516100e99190610ab8565b60405180910390f35b6100fa610289565b6040516101079190610aec565b60405180910390f35b61012a60048036038101906101259190610b79565b61028f565b6040516101379190610ab8565b60405180910390f35b6101486102e5565b6040516101559190610ab8565b60405180910390f35b6101666102fb565b6040516101739190610c64565b60405180910390f35b610184610389565b005b61018e610411565b60405161019b9190610ce5565b60405180910390f35b6101ac610437565b6040516101b99190610d0f565b60405180910390f35b6101dc60048036038101906101d79190610b79565b610460565b6040516101e99190610ab8565b60405180910390f35b61020c60048036038101906102079190610d56565b610480565b005b61022860048036038101906102239190610d96565b610652565b6040516102359190610d0f565b60405180910390f35b61025860048036038101906102539190610f1c565b610691565b005b610274600480360381019061026f9190610b79565b6108d8565b005b600360009054906101000a900460ff1681565b60065481565b6000600160008373ffffffffffffffffffffffffffffffffffffffff1673ffffffffffffffffffffffffffffffffffffffff16815260200190815260200160002060009054906101000a900460ff169050919050565b60008060009054906101000a900460ff16905090565b6060600280548060200260200160405190810160405280929190818152602001828054801561037f57602002820191906000526020600020905b8160009054906101000a900473ffffffffffffffffffffffffffffffffffffffff1673ffffffffffffffffffffffffffffffffffffffff1681526020019060010190808311610335575b5050505050905090565b6103916109d0565b73ffffffffffffffffffffffffffffffffffffffff166103af610437565b73ffffffffffffffffffffffffffffffffffffffff1614610405576040517f08c379a00000000000000000000000000000000000000000000000000000000081526004016103fc90610fc2565b60405180910390fd5b61040f60006109d8565b565b600560009054906101000a900473ffffffffffffffffffffffffffffffffffffffff1681565b60008060019054906101000a900473ffffffffffffffffffffffffffffffffffffffff16905090565b60016020528060005260406000206000915054906101000a900460ff1681565b6104886109d0565b73ffffffffffffffffffffffffffffffffffffffff166104a6610437565b73ffffffffffffffffffffffffffffffffffffffff16146104fc576040517f08c379a00000000000000000000000000000000000000000000000000000000081526004016104f390610fc2565b60405180910390fd5b600281815481106105105761050f610fe2565b5b9060005260206000200160009054906101000a900473ffffffffffffffffffffffffffffffffffffffff1673ffffffffffffffffffffffffffffffffffffffff168273ffffffffffffffffffffffffffffffffffffffff161461057257600080fd5b6000600160008473ffffffffffffffffffffffffffffffffffffffff1673ffffffffffffffffffffffffffffffffffffffff16815260200190815260200160002060006101000a81548160ff021916908315150217905550600281815481106105de576105dd610fe2565b5b9060005260206000200160006101000a81549073ffffffffffffffffffffffffffffffffffffffff02191690558173ffffffffffffffffffffffffffffffffffffffff167fcdd2e9b91a56913d370075169cefa1602ba36be5301664f752192bb1709df75760405160405180910390a25050565b6002818154811061066257600080fd5b906000526020600020016000915054906101000a900473ffffffffffffffffffffffffffffffffffffffff1681565b6106996109d0565b73ffffffffffffffffffffffffffffffffffffffff166106b7610437565b73ffffffffffffffffffffffffffffffffffffffff161461070d576040517f08c379a000000000000000000000000000000000000000000000000000000000815260040161070490610fc2565b60405180910390fd5b60005b815181101561089257600115156001600084848151811061073457610733610fe2565b5b602002602001015173ffffffffffffffffffffffffffffffffffffffff1673ffffffffffffffffffffffffffffffffffffffff16815260200190815260200160002060009054906101000a900460ff161515141561079157600080fd5b60018060008484815181106107a9576107a8610fe2565b5b602002602001015173ffffffffffffffffffffffffffffffffffffffff1673ffffffffffffffffffffffffffffffffffffffff16815260200190815260200160002060006101000a81548160ff021916908315150217905550600282828151811061081757610816610fe2565b5b60200260200101519080600181540180825580915050600190039060005260206000200160009091909190916101000a81548173ffffffffffffffffffffffffffffffffffffffff021916908373ffffffffffffffffffffffffffffffffffffffff160217905550808061088a90611040565b915050610710565b50806040516108a19190611119565b60405180910390207fe3c5086a518f78e8aa61952bb9c28a9a0f0022707e537ea961faa918e0d89f6f60405160405180910390a250565b6108e06109d0565b73ffffffffffffffffffffffffffffffffffffffff166108fe610437565b73ffffffffffffffffffffffffffffffffffffffff1614610954576040517f08c379a000000000000000000000000000000000000000000000000000000000815260040161094b90610fc2565b60405180910390fd5b600073ffffffffffffffffffffffffffffffffffffffff168173ffffffffffffffffffffffffffffffffffffffff1614156109c4576040517f08c379a00000000000000000000000000000000000000000000000000000000081526004016109bb906111a2565b60405180910390fd5b6109cd816109d8565b50565b600033905090565b60008060019054906101000a900473ffffffffffffffffffffffffffffffffffffffff16905081600060016101000a81548173ffffffffffffffffffffffffffffffffffffffff021916908373ffffffffffffffffffffffffffffffffffffffff1602179055508173ffffffffffffffffffffffffffffffffffffffff168173ffffffffffffffffffffffffffffffffffffffff167f8be0079c531659141344cd1fd0a4f28419497f9722a3daafe3b4186f6b6457e060405160405180910390a35050565b60008115159050919050565b610ab281610a9d565b82525050565b6000602082019050610acd6000830184610aa9565b92915050565b6000819050919050565b610ae681610ad3565b82525050565b6000602082019050610b016000830184610add565b92915050565b6000604051905090565b600080fd5b600080fd5b600073ffffffffffffffffffffffffffffffffffffffff82169050919050565b6000610b4682610b1b565b9050919050565b610b5681610b3b565b8114610b6157600080fd5b50565b600081359050610b7381610b4d565b92915050565b600060208284031215610b8f57610b8e610b11565b5b6000610b9d84828501610b64565b91505092915050565b600081519050919050565b600082825260208201905092915050565b6000819050602082019050919050565b610bdb81610b3b565b82525050565b6000610bed8383610bd2565b60208301905092915050565b6000602082019050919050565b6000610c1182610ba6565b610c1b8185610bb1565b9350610c2683610bc2565b8060005b83811015610c57578151610c3e8882610be1565b9750610c4983610bf9565b925050600181019050610c2a565b5085935050505092915050565b60006020820190508181036000830152610c7e8184610c06565b905092915050565b6000819050919050565b6000610cab610ca6610ca184610b1b565b610c86565b610b1b565b9050919050565b6000610cbd82610c90565b9050919050565b6000610ccf82610cb2565b9050919050565b610cdf81610cc4565b82525050565b6000602082019050610cfa6000830184610cd6565b92915050565b610d0981610b3b565b82525050565b6000602082019050610d246000830184610d00565b92915050565b610d3381610ad3565b8114610d3e57600080fd5b50565b600081359050610d5081610d2a565b92915050565b60008060408385031215610d6d57610d6c610b11565b5b6000610d7b85828601610b64565b9250506020610d8c85828601610d41565b9150509250929050565b600060208284031215610dac57610dab610b11565b5b6000610dba84828501610d41565b91505092915050565b600080fd5b6000601f19601f8301169050919050565b7f4e487b7100000000000000000000000000000000000000000000000000000000600052604160045260246000fd5b610e1182610dc8565b810181811067ffffffffffffffff82111715610e3057610e2f610dd9565b5b80604052505050565b6000610e43610b07565b9050610e4f8282610e08565b919050565b600067ffffffffffffffff821115610e6f57610e6e610dd9565b5b602082029050602081019050919050565b600080fd5b6000610e98610e9384610e54565b610e39565b90508083825260208201905060208402830185811115610ebb57610eba610e80565b5b835b81811015610ee45780610ed08882610b64565b845260208401935050602081019050610ebd565b5050509392505050565b600082601f830112610f0357610f02610dc3565b5b8135610f13848260208601610e85565b91505092915050565b600060208284031215610f3257610f31610b11565b5b600082013567ffffffffffffffff811115610f5057610f4f610b16565b5b610f5c84828501610eee565b91505092915050565b600082825260208201905092915050565b7f4f776e61626c653a2063616c6c6572206973206e6f7420746865206f776e6572600082015250565b6000610fac602083610f65565b9150610fb782610f76565b602082019050919050565b60006020820190508181036000830152610fdb81610f9f565b9050919050565b7f4e487b7100000000000000000000000000000000000000000000000000000000600052603260045260246000fd5b7f4e487b7100000000000000000000000000000000000000000000000000000000600052601160045260246000fd5b600061104b82610ad3565b91507fffffffffffffffffffffffffffffffffffffffffffffffffffffffffffffffff82141561107e5761107d611011565b5b600182019050919050565b600081905092915050565b61109d81610b3b565b82525050565b60006110af8383611094565b60208301905092915050565b60006110c682610ba6565b6110d08185611089565b93506110db83610bc2565b8060005b8381101561110c5781516110f388826110a3565b97506110fe83610bf9565b9250506001810190506110df565b5085935050505092915050565b600061112582846110bb565b915081905092915050565b7f4f776e61626c653a206e6577206f776e657220697320746865207a65726f206160008201527f6464726573730000000000000000000000000000000000000000000000000000602082015250565b600061118c602683610f65565b915061119782611130565b604082019050919050565b600060208201905081810360008301526111bb8161117f565b905091905056fea2646970667358221220f003a40945707d8c10d2151b87d2cca58a9354dc6dd5d3d6879c8cd53e6daf9a64736f6c634300080a0033",
  "immutableReferences": {},
  "source": "// SPDX-License-Identifier: MIT\r\npragma solidity >=0.8.5 <0.9.0;\r\nimport \"@openzeppelin/contracts/token/ERC20/ERC20.sol\";\r\nimport \"@openzeppelin/contracts/security/Pausable.sol\";\r\nimport \"@openzeppelin/contracts/utils/math/SafeMath.sol\";\r\nimport \"./Whitelist.sol\";\r\n\r\ncontract IdoSale1 is Pausable, Whitelist {\r\n    using SafeMath for uint256;\r\n    uint256 increment = 0;\r\n\r\n     ERC20 public erc20;\r\n     uint public decimals = 0;\r\n\r\n\r\n    constructor(address _tokenAddress, bool _hasWhitelisting) Whitelist(_hasWhitelisting) {\r\n\r\n        erc20 = ERC20(_tokenAddress);\r\n        decimals = erc20.decimals();\r\n\r\n    }\r\n\r\n\r\n}",
  "sourcePath": "C:\\Users\\user\\Desktop\\token\\contracts\\IdoSale1.sol",
  "compiler": {
    "name": "solc",
    "version": "0.8.10+commit.fc410830.Emscripten.clang"
  },
  "schemaVersion": "3.4.3",
  "updatedAt": "2022-03-01T03:18:03.651Z",
  "devdoc": {
    "kind": "dev",
    "methods": {
      "owner()": {
        "details": "Returns the address of the current owner."
      },
      "paused()": {
        "details": "Returns true if the contract is paused, and false otherwise."
      },
      "renounceOwnership()": {
        "details": "Leaves the contract without owner. It will not be possible to call `onlyOwner` functions anymore. Can only be called by the current owner. NOTE: Renouncing ownership will leave the contract without an owner, thereby removing any functionality that is only available to the owner."
      },
      "transferOwnership(address)": {
        "details": "Transfers ownership of the contract to a new account (`newOwner`). Can only be called by the current owner."
      }
    },
    "version": 1
  },
  "userdoc": {
    "kind": "user",
    "methods": {},
    "version": 1
  }
}