{
  "contractName": "Whitelist",
  "abi": [
    {
      "inputs": [
        {
          "internalType": "bool",
          "name": "_hasWhitelisting",
          "type": "bool"
        }
      ],
      "stateMutability": "nonpayable",
      "type": "constructor"
    },
    {
      "anonymous": false,
      "inputs": [
        {
          "indexed": true,
          "internalType": "address[]",
          "name": "accounts",
          "type": "address[]"
        }
      ],
      "name": "AddedToWhitelist",
      "type": "event"
    },
    {
      "anonymous": false,
      "inputs": [
        {
          "indexed": true,
          "internalType": "address",
          "name": "previousOwner",
          "type": "address"
        },
        {
          "indexed": true,
          "internalType": "address",
          "name": "newOwner",
          "type": "address"
        }
      ],
      "name": "OwnershipTransferred",
      "type": "event"
    },
    {
      "anonymous": false,
      "inputs": [
        {
          "indexed": true,
          "internalType": "address",
          "name": "account",
          "type": "address"
        }
      ],
      "name": "RemovedFromWhitelist",
      "type": "event"
    },
    {
      "inputs": [],
      "name": "hasWhitelisting",
      "outputs": [
        {
          "internalType": "bool",
          "name": "",
          "type": "bool"
        }
      ],
      "stateMutability": "view",
      "type": "function"
    },
    {
      "inputs": [],
      "name": "owner",
      "outputs": [
        {
          "internalType": "address",
          "name": "",
          "type": "address"
        }
      ],
      "stateMutability": "view",
      "type": "function"
    },
    {
      "inputs": [],
      "name": "renounceOwnership",
      "outputs": [],
      "stateMutability": "nonpayable",
      "type": "function"
    },
    {
      "inputs": [
        {
          "internalType": "address",
          "name": "newOwner",
          "type": "address"
        }
      ],
      "name": "transferOwnership",
      "outputs": [],
      "stateMutability": "nonpayable",
      "type": "function"
    },
    {
      "inputs": [
        {
          "internalType": "address",
          "name": "",
          "type": "address"
        }
      ],
      "name": "whitelist",
      "outputs": [
        {
          "internalType": "bool",
          "name": "",
          "type": "bool"
        }
      ],
      "stateMutability": "view",
      "type": "function"
    },
    {
      "inputs": [
        {
          "internalType": "uint256",
          "name": "",
          "type": "uint256"
        }
      ],
      "name": "whitelistedAddresses",
      "outputs": [
        {
          "internalType": "address",
          "name": "",
          "type": "address"
        }
      ],
      "stateMutability": "view",
      "type": "function"
    },
    {
      "inputs": [
        {
          "internalType": "address[]",
          "name": "_addresses",
          "type": "address[]"
        }
      ],
      "name": "add",
      "outputs": [],
      "stateMutability": "nonpayable",
      "type": "function"
    },
    {
      "inputs": [
        {
          "internalType": "address",
          "name": "_address",
          "type": "address"
        },
        {
          "internalType": "uint256",
          "name": "_index",
          "type": "uint256"
        }
      ],
      "name": "remove",
      "outputs": [],
      "stateMutability": "nonpayable",
      "type": "function"
    },
    {
      "inputs": [],
      "name": "getWhitelistedAddresses",
      "outputs": [
        {
          "internalType": "address[]",
          "name": "",
          "type": "address[]"
        }
      ],
      "stateMutability": "view",
      "type": "function"
    },
    {
      "inputs": [
        {
          "internalType": "address",
          "name": "_address",
          "type": "address"
        }
      ],
      "name": "isWhitelisted",
      "outputs": [
        {
          "internalType": "bool",
          "name": "",
          "type": "bool"
        }
      ],
      "stateMutability": "view",
      "type": "function"
    }
  ],
  "bytecode": "0x60806040526000600360006101000a81548160ff0219169083151502179055503480156200002c57600080fd5b5060405162001269380380620012698339818101604052810190620000529190620001a1565b62000072620000666200009360201b60201c565b6200009b60201b60201c565b80600360006101000a81548160ff02191690831515021790555050620001d3565b600033905090565b60008060009054906101000a900473ffffffffffffffffffffffffffffffffffffffff169050816000806101000a81548173ffffffffffffffffffffffffffffffffffffffff021916908373ffffffffffffffffffffffffffffffffffffffff1602179055508173ffffffffffffffffffffffffffffffffffffffff168173ffffffffffffffffffffffffffffffffffffffff167f8be0079c531659141344cd1fd0a4f28419497f9722a3daafe3b4186f6b6457e060405160405180910390a35050565b600080fd5b60008115159050919050565b6200017b8162000164565b81146200018757600080fd5b50565b6000815190506200019b8162000170565b92915050565b600060208284031215620001ba57620001b96200015f565b5b6000620001ca848285016200018a565b91505092915050565b61108680620001e36000396000f3fe608060405234801561001057600080fd5b506004361061009e5760003560e01c80639b19251a116100665780639b19251a14610137578063abe7f1ab14610167578063ba4e5c4914610183578063c4c1c94f146101b3578063f2fde38b146101cf5761009e565b806307662345146100a35780633af32abf146100c15780636d028027146100f1578063715018a61461010f5780638da5cb5b14610119575b600080fd5b6100ab6101eb565b6040516100b891906109ea565b60405180910390f35b6100db60048036038101906100d69190610a77565b6101fe565b6040516100e891906109ea565b60405180910390f35b6100f9610254565b6040516101069190610b62565b60405180910390f35b6101176102e2565b005b61012161036a565b60405161012e9190610b93565b60405180910390f35b610151600480360381019061014c9190610a77565b610393565b60405161015e91906109ea565b60405180910390f35b610181600480360381019061017c9190610be4565b6103b3565b005b61019d60048036038101906101989190610c24565b610585565b6040516101aa9190610b93565b60405180910390f35b6101cd60048036038101906101c89190610daa565b6105c4565b005b6101e960048036038101906101e49190610a77565b61080b565b005b600360009054906101000a900460ff1681565b6000600160008373ffffffffffffffffffffffffffffffffffffffff1673ffffffffffffffffffffffffffffffffffffffff16815260200190815260200160002060009054906101000a900460ff169050919050565b606060028054806020026020016040519081016040528092919081815260200182805480156102d857602002820191906000526020600020905b8160009054906101000a900473ffffffffffffffffffffffffffffffffffffffff1673ffffffffffffffffffffffffffffffffffffffff168152602001906001019080831161028e575b5050505050905090565b6102ea610903565b73ffffffffffffffffffffffffffffffffffffffff1661030861036a565b73ffffffffffffffffffffffffffffffffffffffff161461035e576040517f08c379a000000000000000000000000000000000000000000000000000000000815260040161035590610e50565b60405180910390fd5b610368600061090b565b565b60008060009054906101000a900473ffffffffffffffffffffffffffffffffffffffff16905090565b60016020528060005260406000206000915054906101000a900460ff1681565b6103bb610903565b73ffffffffffffffffffffffffffffffffffffffff166103d961036a565b73ffffffffffffffffffffffffffffffffffffffff161461042f576040517f08c379a000000000000000000000000000000000000000000000000000000000815260040161042690610e50565b60405180910390fd5b6002818154811061044357610442610e70565b5b9060005260206000200160009054906101000a900473ffffffffffffffffffffffffffffffffffffffff1673ffffffffffffffffffffffffffffffffffffffff168273ffffffffffffffffffffffffffffffffffffffff16146104a557600080fd5b6000600160008473ffffffffffffffffffffffffffffffffffffffff1673ffffffffffffffffffffffffffffffffffffffff16815260200190815260200160002060006101000a81548160ff0219169083151502179055506002818154811061051157610510610e70565b5b9060005260206000200160006101000a81549073ffffffffffffffffffffffffffffffffffffffff02191690558173ffffffffffffffffffffffffffffffffffffffff167fcdd2e9b91a56913d370075169cefa1602ba36be5301664f752192bb1709df75760405160405180910390a25050565b6002818154811061059557600080fd5b906000526020600020016000915054906101000a900473ffffffffffffffffffffffffffffffffffffffff1681565b6105cc610903565b73ffffffffffffffffffffffffffffffffffffffff166105ea61036a565b73ffffffffffffffffffffffffffffffffffffffff1614610640576040517f08c379a000000000000000000000000000000000000000000000000000000000815260040161063790610e50565b60405180910390fd5b60005b81518110156107c557600115156001600084848151811061066757610666610e70565b5b602002602001015173ffffffffffffffffffffffffffffffffffffffff1673ffffffffffffffffffffffffffffffffffffffff16815260200190815260200160002060009054906101000a900460ff16151514156106c457600080fd5b60018060008484815181106106dc576106db610e70565b5b602002602001015173ffffffffffffffffffffffffffffffffffffffff1673ffffffffffffffffffffffffffffffffffffffff16815260200190815260200160002060006101000a81548160ff021916908315150217905550600282828151811061074a57610749610e70565b5b60200260200101519080600181540180825580915050600190039060005260206000200160009091909190916101000a81548173ffffffffffffffffffffffffffffffffffffffff021916908373ffffffffffffffffffffffffffffffffffffffff16021790555080806107bd90610ece565b915050610643565b50806040516107d49190610fa7565b60405180910390207fe3c5086a518f78e8aa61952bb9c28a9a0f0022707e537ea961faa918e0d89f6f60405160405180910390a250565b610813610903565b73ffffffffffffffffffffffffffffffffffffffff1661083161036a565b73ffffffffffffffffffffffffffffffffffffffff1614610887576040517f08c379a000000000000000000000000000000000000000000000000000000000815260040161087e90610e50565b60405180910390fd5b600073ffffffffffffffffffffffffffffffffffffffff168173ffffffffffffffffffffffffffffffffffffffff1614156108f7576040517f08c379a00000000000000000000000000000000000000000000000000000000081526004016108ee90611030565b60405180910390fd5b6109008161090b565b50565b600033905090565b60008060009054906101000a900473ffffffffffffffffffffffffffffffffffffffff169050816000806101000a81548173ffffffffffffffffffffffffffffffffffffffff021916908373ffffffffffffffffffffffffffffffffffffffff1602179055508173ffffffffffffffffffffffffffffffffffffffff168173ffffffffffffffffffffffffffffffffffffffff167f8be0079c531659141344cd1fd0a4f28419497f9722a3daafe3b4186f6b6457e060405160405180910390a35050565b60008115159050919050565b6109e4816109cf565b82525050565b60006020820190506109ff60008301846109db565b92915050565b6000604051905090565b600080fd5b600080fd5b600073ffffffffffffffffffffffffffffffffffffffff82169050919050565b6000610a4482610a19565b9050919050565b610a5481610a39565b8114610a5f57600080fd5b50565b600081359050610a7181610a4b565b92915050565b600060208284031215610a8d57610a8c610a0f565b5b6000610a9b84828501610a62565b91505092915050565b600081519050919050565b600082825260208201905092915050565b6000819050602082019050919050565b610ad981610a39565b82525050565b6000610aeb8383610ad0565b60208301905092915050565b6000602082019050919050565b6000610b0f82610aa4565b610b198185610aaf565b9350610b2483610ac0565b8060005b83811015610b55578151610b3c8882610adf565b9750610b4783610af7565b925050600181019050610b28565b5085935050505092915050565b60006020820190508181036000830152610b7c8184610b04565b905092915050565b610b8d81610a39565b82525050565b6000602082019050610ba86000830184610b84565b92915050565b6000819050919050565b610bc181610bae565b8114610bcc57600080fd5b50565b600081359050610bde81610bb8565b92915050565b60008060408385031215610bfb57610bfa610a0f565b5b6000610c0985828601610a62565b9250506020610c1a85828601610bcf565b9150509250929050565b600060208284031215610c3a57610c39610a0f565b5b6000610c4884828501610bcf565b91505092915050565b600080fd5b6000601f19601f8301169050919050565b7f4e487b7100000000000000000000000000000000000000000000000000000000600052604160045260246000fd5b610c9f82610c56565b810181811067ffffffffffffffff82111715610cbe57610cbd610c67565b5b80604052505050565b6000610cd1610a05565b9050610cdd8282610c96565b919050565b600067ffffffffffffffff821115610cfd57610cfc610c67565b5b602082029050602081019050919050565b600080fd5b6000610d26610d2184610ce2565b610cc7565b90508083825260208201905060208402830185811115610d4957610d48610d0e565b5b835b81811015610d725780610d5e8882610a62565b845260208401935050602081019050610d4b565b5050509392505050565b600082601f830112610d9157610d90610c51565b5b8135610da1848260208601610d13565b91505092915050565b600060208284031215610dc057610dbf610a0f565b5b600082013567ffffffffffffffff811115610dde57610ddd610a14565b5b610dea84828501610d7c565b91505092915050565b600082825260208201905092915050565b7f4f776e61626c653a2063616c6c6572206973206e6f7420746865206f776e6572600082015250565b6000610e3a602083610df3565b9150610e4582610e04565b602082019050919050565b60006020820190508181036000830152610e6981610e2d565b9050919050565b7f4e487b7100000000000000000000000000000000000000000000000000000000600052603260045260246000fd5b7f4e487b7100000000000000000000000000000000000000000000000000000000600052601160045260246000fd5b6000610ed982610bae565b91507fffffffffffffffffffffffffffffffffffffffffffffffffffffffffffffffff821415610f0c57610f0b610e9f565b5b600182019050919050565b600081905092915050565b610f2b81610a39565b82525050565b6000610f3d8383610f22565b60208301905092915050565b6000610f5482610aa4565b610f5e8185610f17565b9350610f6983610ac0565b8060005b83811015610f9a578151610f818882610f31565b9750610f8c83610af7565b925050600181019050610f6d565b5085935050505092915050565b6000610fb38284610f49565b915081905092915050565b7f4f776e61626c653a206e6577206f776e657220697320746865207a65726f206160008201527f6464726573730000000000000000000000000000000000000000000000000000602082015250565b600061101a602683610df3565b915061102582610fbe565b604082019050919050565b600060208201905081810360008301526110498161100d565b905091905056fea2646970667358221220f2df1bacaf37428f5c0d0e383767ef31098642e8e1e71cb9e5c581d03adeb94e64736f6c634300080a0033",
  "immutableReferences": {},
  "source": "// SPDX-License-Identifier: MIT\r\npragma solidity >=0.8.5 <0.9.0;\r\n\r\nimport \"@openzeppelin/contracts/access/Ownable.sol\";\r\n\r\ncontract Whitelist is Ownable {\r\n\r\n    mapping(address => bool) public whitelist;\r\n    address[] public whitelistedAddresses;\r\n    bool public hasWhitelisting = false;\r\n\r\n    event AddedToWhitelist(address[] indexed accounts);\r\n    event RemovedFromWhitelist(address indexed account);\r\n\r\n    modifier onlyWhitelisted() {\r\n        if(hasWhitelisting){\r\n            require(isWhitelisted(msg.sender));\r\n        }\r\n        _;\r\n    }\r\n    \r\n    constructor (bool _hasWhitelisting){\r\n        hasWhitelisting = _hasWhitelisting;\r\n    }\r\n\r\n    function add(address[] memory _addresses) public onlyOwner {\r\n        for (uint i = 0; i < _addresses.length; i++) {\r\n            require(whitelist[_addresses[i]] != true);\r\n            whitelist[_addresses[i]] = true;\r\n            whitelistedAddresses.push(_addresses[i]);\r\n        }\r\n        emit AddedToWhitelist(_addresses);\r\n    }\r\n\r\n    function remove(address _address, uint256 _index) public onlyOwner {\r\n        require(_address == whitelistedAddresses[_index]);\r\n        whitelist[_address] = false;\r\n        delete whitelistedAddresses[_index];\r\n        emit RemovedFromWhitelist(_address);\r\n    }\r\n\r\n    function getWhitelistedAddresses() public view returns(address[] memory) {\r\n        return whitelistedAddresses;\r\n    } \r\n\r\n    function isWhitelisted(address _address) public view returns(bool) {\r\n        return whitelist[_address];\r\n    }\r\n}",
  "sourcePath": "C:\\Users\\user\\Desktop\\token\\contracts\\Whitelist.sol",
  "compiler": {
    "name": "solc",
    "version": "0.8.10+commit.fc410830.Emscripten.clang"
  },
  "schemaVersion": "3.4.3",
  "updatedAt": "2022-03-01T03:18:03.743Z",
  "devdoc": {
    "kind": "dev",
    "methods": {
      "owner()": {
        "details": "Returns the address of the current owner."
      },
      "renounceOwnership()": {
        "details": "Leaves the contract without owner. It will not be possible to call `onlyOwner` functions anymore. Can only be called by the current owner. NOTE: Renouncing ownership will leave the contract without an owner, thereby removing any functionality that is only available to the owner."
      },
      "transferOwnership(address)": {
        "details": "Transfers ownership of the contract to a new account (`newOwner`). Can only be called by the current owner."
      }
    },
    "version": 1
  },
  "userdoc": {
    "kind": "user",
    "methods": {},
    "version": 1
  }
}